:020000041000EA
:1000000000B5324B212058609868022188439860DF
:10001000D860186158612E4B002199600221596106
:100020000121F02299502B49196001219960352056
:1000300000F044F80222904214D00621196600F024
:1000400034F8196E01211966002018661A6600F04E
:100050002CF8196E196E196E052000F02FF8012189
:100060000842F9D1002199601B49196000215960AB
:100070001A491B48016001219960EB211966A021F2
:10008000196600F012F800219960164914480160C1
:100090000121996001BC002800D000471248134993
:1000A000086003C880F30888084703B5996A0420EC
:1000B0000142FBD001200142F8D103BD02B5186610
:1000C0001866FFF7F2FF186E186E02BD00000240BE
:1000D000000000180000070000035F00212200005C
:1000E000F4000018222000A00001001008ED00E03C
:1000F00000000000000000000000000074B24E7A12
:1001000000000420C10100105D3A001035580010B5
:1001100000000000000000000000000000000000DF
:100120000000000000000000000000005D3A001028
:1001300000000000000000005D3A00105D3A001071
:10014000414100105D3A00105D3A00105D3A001028
:100150005D3A00105D3A00105D3A00101D2F00104E
:100160005D3A00105D3A00105D3A00101D4200102B
:100170005D3A0010A94100105D3A00105D3A001090
:10018000010000205D3A00105D3A00105D3A001059
:100190005D3A00105D3A00105D3A00105D3A0010C3
:1001A0005D3A00105D3A00105D3A00105D3A0010B3
:1001B0005D3A00105D3A00105D3A00105D3A0010A3
:1001C00003F0A2FF084809490022814201D004C07F
:1001D000FBE707480749084A814202D008CA08C01D
:1001E000FAE702F057FF00DE280100206006002039
:1001F00000000020280100206C680010F0B503AF5B
:1002000085B00A46044602AD2846214602F070FF3A
:10021000287800280FD0012816D12569A068049EEF
:10022000039A1A4B294604F0ADFA0670E068A8421A
:1002300026D0002105E002A9E068226990421FD083
:1002400049780170401C18E002A8407A01902569A5
:10025000A068049E039A0C4B294604F093FA06709A
:10026000E1680220A9420CD0019A0A704A1CE2609F
:10027000AA4206D000204870881CE060102000E0F0
:10028000022005B0F0BDC046D05B0010C05B00107E
:10029000B0B502AF1446054602F048FBC0B21028C4
:1002A00004D128462146FFF7A9FFB0BD0220B0BD0A
:1002B000F8B504AF0E460546002102F037FBC0B288
:1002C0000224102835D131782846FFF797FFC1B2B4
:1002D00010292DD17078012817D10121284602F06C
:1002E00025FBC0B2102824D1F1782846FFF786FFFD
:1002F0000446C0B210281CD1B178284602F016FB83
:10030000C4B2102C15D0022413E00021284602F0BC
:100310000DFBC0B210280CD1B1782846FFF76EFF54
:100320000446C0B2102804D1F1782846FFF766FFD2
:1003300004462046F8BDD4D4FEB506AF0C46284985
:100340000968C9053DD10290206800283ED101927C
:100350004D20800026180021C843254601C5307A6B
:10036000012804D120460C3003F0A1FF317A05CEDC
:10037000083E904201D1C9070FD021461431431CD9
:1003800000220093102B134600D0009B3360327282
:10039000122242438E5C082E07D1019806C82846D7
:1003A00003F06AFF0826029D06E08918029D681C7A
:1003B000491C112205F019FA2E702068401C20609B
:1003C000FEBD084803F0E8FB03F0F3FB064803F02A
:1003D000D8FB02F04FF803F0B3FC03F0EAFBC04691
:1003E00004ED00E01300000011000000D0B502AFE2
:1003F0000446904202D808462146D0BD2046114608
:100400001A4602F0C7FFD4D4F8B504AF03F07EFD5E
:10041000104C217A4D1E2572C0B203F0A1FD2806B2
:1004200000D0F8BD03F072FD216900916569C0B28A
:1004300003F096FD0026084C1E2EF2D000982946A7
:10044000324604F05AFEC00701D01F202060761CFF
:100450000834F1E70806002004400140D0B502AF9F
:100460000C4603F091FD0168302291432207120EE1
:100470000A430260D0BDD4D4F0B503AF87B01546AF
:100480000E4602904820105C002821D028464830B3
:10049000437804AC204631462A4600F03BF82078E9
:1004A000022830D004A9CA7803AB9A704A788978B8
:1004B000090289181980059C069D029E3070701CE7
:1004C00003A9032205F091F97460B56007B0F0BD8F
:1004D000002301931F2B0BD804AC204631462A463B
:1004E00000F018F820780228DCD10598431CF1E7C9
:1004F000074803F046FB0198214601F093FF03F003
:100500001FFC03F056FB059C01200190F0E7C0465C
:100510000C000000F0B503AF89B0029010464A30DD
:100520000190807800284FD10091086807900393CC
:10053000DDB2FF20410150684000069000231E46B6
:10054000059204910698984224D00893D018028905
:1005500008462030824206D2039880180A401F23A2
:100560000340134300E013461F222A40012090401D
:10057000294635463446079E354305421ED1920032
:10058000154D53510443089B9B1C4D1C059A264650
:100590000499D7E7029D039BAB72079C34430098F4
:1005A0000460106841C5019C6078C0181F21084094
:1005B00068702078C0180840287003E00220029973
:1005C00008704A6009B0F0BD024803F0E5FA03F094
:1005D000F0FAC0460D00000048002050F8B504AF06
:1005E0000D788C78661BF6B2B34213D1C573847153
:1005F0004C7804740C894482002B04D01268137860
:100600007F221A4000E00022827201228276897ADB
:10061000C176F8BD024803F0BFFA03F0CAFAC0463B
:100620000700000080B500AF03F0AEFC0168442273
:100630000A4308218A43026080BDD4D4B0B502AF1A
:1006400086B00D46044603F061FCC0B2A17D0029CE
:1006500001D0002401E00121A17503F081FC002CF0
:1006600007D016222046294605F0BFF8204606B0DE
:10067000B0BD002004900121019104490091039034
:10068000042002906846024902F07AFDEC580010FE
:100690005859001080B500AF06C801234B400838F8
:1006A000134304D10021022202604160FEDE0248B1
:1006B00003F072FA03F07DFA06000000F0B503AF14
:1006C000FFB088B01A90EA492691279075218900D9
:1006D00041181391097C6AAD6AAC01220A92120298
:1006E000159200221492D243179203468433024695
:1006F000AE321B920246D03200291F9219930ED0BF
:10070000032901D000F0E5FCD868196901431A9962
:1007100001D000F020FE1B98047800F008FC03F0E4
:10072000F5FBD44A517A012901D100F0D5FC4835B6
:100730000D95483409941A9920310891C0B20126C8
:10074000567203F00DFCCC4BCC491960CC4C002503
:10075000A564E168B143E16061690129FCD12168C8
:10076000032291432160A1680129FCD10C9210035E
:100770001860209003F036FCC248C3494160816094
:10078000AB2109010161C1490160C148C149C16092
:10079000C149016041680029FCD5C04806607D213F
:1007A00081600C22426001680029FCD53121490397
:1007B000C160042125914160B948066078218160BB
:1007C000426001680029FCD565210903C1602599B3
:1007D0004160022021902060A0680428FCD1159877
:1007E000606083208000AF490860AF48A149C860BD
:1007F000E56060690128FCD12492E6606069022806
:10080000FCD11598206131462396F602A661A062BC
:10081000666260632663880416902064E663A348DA
:1008200003F0E0FBEC4303F071FB92498C61CC6177
:10083000C0B203F095FB9E48239901609D4C216056
:100840009D4806600B200B9003F0B4FBFF20129034
:100850000002FF30994908600796266026462398D3
:100860004403954804600D2003F0A4FB34609448D1
:100870004021189141619348052484622020924EC2
:100880003061924920468847189E8D4886618D4880
:1008900004638D48066106201D908C49884788486E
:1008A000C6618848846380201C90874908610720BE
:1008B00086498847824806628248046415988249BE
:1008C000086108202290814988477D4BDE66804878
:1008D0008463239AD1067C480160C1609E667C498E
:1008E0000C6391060160C1609E6579490C619105B8
:1008F0000160C1601E6576490C60110501600A91B6
:10090000C160DE6572498C61D1050160C16001463C
:100910005E6511946E48846050050860C860302D93
:1009200008D06AA8002141534019C18081804180CC
:100930000835F4E728A86AA9302204F056FF002001
:10094000199B182808D06AA900220A540918CA70ED
:100950008A704A70001DF4E75E4818815E4858604E
:100960005E481A9C20652046543028A930221E4635
:1009700004F03BFF00253560204630306AA918227C
:1009800004F033FF25626562A564E56434A8239012
:1009900016241094214604F0C7FB6AA80F90214644
:1009A00004F0C2FB334E304628300F99FFF746FE65
:1009B0000F9030463F302399FFF740FE0E90484895
:1009C000804711993172C0B2464CA04744488047D5
:1009D00035617561C0B2A04743481C990160354834
:1009E0000160424E25983060FFF70EFD229830607E
:1009F000FFF70AFD324C25601898206031481D9998
:100A000001604226266001202390294602F05CFB0B
:100A10002561189820611D982A49086226611020D6
:100A20001890294602F050FB31480E990161109947
:100A300041618561C5610F9A026041608560C56052
:100A40003A952C483B901C481C99016024488047EB
:100A500012990906284A13688B431360C0B22149D2
:100A600088473AA8C179002948D1079BFE3B47E057
:100A7000DC6300100806002000C00040BFCDFB0072
:100A8000308000400000064000009696A5BFFA00A6
:100A90000040024070170000A0BAFA000080024037
:100AA00000C002402C80054040597307FFFFFF0142
:100AB0003840054000E100E080E100E0040400501F
:100AC00004C0014004400140180000D02506001079
:100AD000A4400140171500001B1A1614050607084C
:100AE0000D3F0010613F001080E200E00030205018
:100AF000B40000200001040104E400E015998B1CFF
:100B0000249AA6494B661C9BA5490B60A5490B601E
:100B10004179031D12936D93801D00291C90259E21
:100B200000D108466E901E959F4C142A2CD06AA8BE
:100B30008658002E25D030787E2101401E2900D312
:100B4000BCE2C006000EFD4B19582492209A914336
:100B5000239D2A03891819503078A0470168219AEB
:100B6000114301603078A0470168229A1143259A09
:100B7000914301603078A047249A016829431E9D63
:100B80000160121D259ED0E7F1484190F148409048
:100B90003F963E953EA80424214601F0FFFBC00786
:100BA00007D0442E00D18EE250A881536D1CB61C94
:100BB000F0E75095E8486A906AA82490001D50A973
:100BC000442203F0A9FE00260D9806710C9941807D
:100BD00006703AA82590407922903EAD28460F3005
:100BE000052103F0ECFDAE752398A882AE77AE83A5
:100BF000AE7640963F9648A820902599249AFFF714
:100C00003BFC229800281C9800D112983D9000D1FE
:100C10001D943DAA28462099239BFFF7DFFC1D98D1
:100C20002599081800782590E1200503CB48C46871
:100C30002046294604F006FB210BE02900D844E2B7
:100C40003EA90A79202A554B00D340E220953EA9BF
:100C5000897D212900D341E2000418603EA8037C6D
:100C60005C1EA3415B07C47B651EAC41A4071C430B
:100C7000437CDB06DB081B19D2041A43037F002BDD
:100C8000169D2C4600D11C461219437F5C1EA341C1
:100C90005B041343827CD206D20B1A43837FDB07AB
:100CA000DB0EC47CE406240DE318134342790F24C1
:100CB000249422401A43394C6260037D002B2A465B
:100CC00000D11A46C906C9095118427D531E9A41DE
:100CD00012040A43A2491143A1601F211E91259BC2
:100CE0000B4081794907C2795207D2085118427ADC
:100CF000D206120B8918827AD206520C8918C27A4F
:100D0000D206920D8918C9180A9A11436161807E32
:100D100001280AD13EA8C17E48A8417000218170F7
:100D2000017003F023FC80B220613AA8C0798D4C99
:100D3000012804D13AA801F0B5FA2398206023983D
:100D400041042591450780071D903EA80B994183DA
:100D500085498031018385491E31C182CA21818242
:100D60008348479083484690834845908348429003
:100D7000834841908348409018983F903E960424C1
:100D80003EA8102101F00AFBC0070FD0442C00D16F
:100D900099E150A80153761CA41CF1E7C80020502B
:100DA00080E200E000E100E0893F001022955096CB
:100DB00000266A966AA81C90001D50A9442203F0E0
:100DC000ABFD099806712499418006703EAC20461F
:100DD0000F30052103F0F3FC26762398E075667644
:100DE000A677A683A67626733F96409648AD3AA985
:100DF000239128461C9AFFF73FFB042220462946F0
:100E00001C963346FFF7EAFB239805795348C468DC
:100E10002046209E314604F015FAB44200D254E137
:100E20003EA90A79202A584B1E9E1D9C00D34EE1F4
:100E30003EA9497E212900D352E1000498613EA8D1
:100E4000037C002B00D12293C37B002B00D11C46D6
:100E5000229B1C4335402B062343D2041A43037FB5
:100E6000002B00D11693169B1A43447F002C259B20
:100E700000D123461A43837CDB06DB0B1343827FBE
:100E8000D207D20EC47CE406240DA2181A4343797B
:100E9000249C234013433C4CE361027E002A00D192
:100EA0002592C9068908C27DD2045118259A89184D
:100EB000364A8918216281794907C2795207D208D6
:100EC0005118027A920692098918EA038918827ADF
:100ED000D206520C8918C27AD206920D8918027B6A
:100EE00032400A43E262807E01280AD13EA8C17ED8
:100EF00048A8417000218170017003F037FB80B277
:100F0000A0623AA801F064F92198164908603A985D
:100F10003B991F9A1C9C14615461139A03C2199B3C
:100F2000DC601C61089858611B980470147004A15F
:100F30001F9A64000C5B6400A744C0460440014053
:100F4000EF01B902B9022A003A0046005E00C0462D
:100F500081604206A09F27F70101020308060020D6
:100F600000000840002020502020000002C0FFFFA9
:100F700002C0000002008B002080CD00014044062A
:100F800027E04AE6202001C2C8002050000004806B
:100F90001B9B9D1C104608301690107A002800D12B
:100FA00089E003281A9800D1A8E0E34802F044FD44
:100FB0001B9A9078D178090208181179090452799E
:100FC000120651180E1866E102201B9D29586AACC2
:100FD00026AA2046FFF7B0F92078082801D105207D
:100FE00066E0A81CF94901601A9908469C30B431A2
:100FF0003CC83CC1008808801B998B7908228A7103
:10100000082B00D140E202200E581598FF30F0491D
:101010000968014201D000F074FF259324923068E2
:1010200000281A9A01D000F06FFF1346B5334D2007
:10103000800034183546179801C5207A002823937C
:101040000CD030460C30E3491C4603F015F96AA871
:101050001122214604F0C9FB259919E0606812218C
:10106000414370182599017515301122194604F075
:10107000BCFB6068401C102800D100206060216823
:10108000814201D101202072284603F010F92499F1
:101090003068401C30600829199B01D11F9A3CE13F
:1010A0001B9DA9716AA91122239804F09EFB0620BA
:1010B0001A991F9A4CE11A20185816E0C6481D21AB
:1010C000C64A02F089F901F0F3FFC54809E0C548B6
:1010D00007E0C54802F0B0FCC44802E0C44800E0A4
:1010E000C44802F059FD02F064FD1E215850816A87
:1010F000C06A10602960062018506AE01895B83060
:1011000026A903F03FF900281F9A1B9D00D00FE18C
:101110001E351068460034361E9503284BD82C68BF
:10112000259020183021455C5368B3481438006876
:10113000062B00D3A3E12390249302F061FF7D22CC
:10114000D2000023209304F055FB616E421A110473
:101150002BD022921C901F210D40012223461D926C
:10116000AA4023990A40511E8A412499CC00204666
:101170001C1923962194A55B8C001C1925996418D1
:10118000247CA24209D0142D229952D288B2281868
:101190009A49884206D3994804E0229880B2281AD6
:1011A00000D22098239E219988532598401CB61C74
:1011B0001F9A1E9DB1E75068052809D829680818AC
:1011C0006821405C1F210140012088408A49086055
:1011D000189D03CD083D884222D2411C29605060F1
:1011E00005280CD81E211B9A515808186821405C0C
:1011F0001F210140012088407F49091F08606AA81B
:101200000122002303F0A6F86C986B996A9A0A23CE
:101210001B9CE25022460A325160A0741A986DE776
:101220001E201B9B195800228A62CA621F9A1858F6
:101230005DE7239909181C98586600225A521F9B93
:1012400058680628259C00D320E180001E9E316846
:1012500008180019017C1D9D694001745868062812
:1012600000D317E18100336859180919097C986285
:10127000DC62169B1D70230400061843030E2646ED
:10128000199C2377E676A2766176227646185C482A
:1012900018990E60486002241B9B9C70F0B20228D3
:1012A00015994B4A00D1EFE006201D580846FF3043
:1012B0001168014201D000F024FE2868002801D006
:1012C00000F022FE2846179902C05C21695C0029C3
:1012D00007D028460C303F491A9A02F0CDFF344619
:1012E00013E029465C31AA6D9200AA185661AA6DD6
:1012F000531C0022102B00D01A46AA656B6D934236
:1013000001D101220A7002F0D2FF2868401C286037
:10131000E0B202281F9A199B10D158691A211B9B11
:101320005850002111729D1C114608311691DCE6BF
:101330000320169908700AE0545D00101B9DAC70E4
:10134000200C2871200AE870200E687104201A9978
:10135000287000200A90106952690243104600D09C
:101360004FE30790112000010E181B2000010A18FE
:1013700043208000081818901720000108181B90BF
:10138000CB204000081819900D46F0350846EC3087
:101390002490139B187A01240994002820951E9606
:1013A000089232D02878800002A108581A9C249B09
:1013B0008746C046051400109D140010AF1400109D
:1013C0002714001025140010DF190010C804002095
:1013D00004ED00E0DC630010185B0010385B0010C7
:1013E0000800000009000000805E00100E000000F0
:1013F0000A0000000B000000180000D0FFFF0000F2
:10140000680400201F99886957E0186814460A4646
:10141000596803C43720C00010181A2103F02FFAAE
:10142000249B45E08BE2307C19460C311C46083485
:101430003246103200280DD0032832D130460C300D
:101440002590307B00280DD003282DD170681C908A
:10145000B56865E0E86821920A461146219A22940F
:10146000229C3CE068692294AC691C94ED691D954E
:101470001C9D21920A461146219A229C4BE006218E
:10148000EC4A184601F05EFEEB482AE60621EB4ADC
:1014900001F058FE0621EA4A01F054FEE94802F044
:1014A000CBFAE94802F0C8FAE84802F0C5FAFEDED5
:1014B000002028701F9908988861C861BFF35F8F6A
:1014C000E34901228A72E349E34A6A60A960E8605D
:1014D0000021317432461032294608312C1D2391E7
:1014E000286128698168162963D22546144600229E
:1014F000327316223346561A189A1D9616601E46E7
:1015000022462C46249B45180C359861DD613146F6
:101510000C312591239930601C9575601D9DB56037
:10152000002D229423915FD02192CC4E3046103072
:10153000509050A802F0D1FC00295AD01D902C46A2
:101540008D4200D30C46C64B20461C992A46FEF716
:101550004DFFC44A00921D9A234600F053FFB06924
:10156000001971694900411A00D30846BFF35F8F23
:10157000B061012025990870209D286981680919AA
:10158000162900D316218160286981680C30B64A7B
:1015900000F013FF072900D9DFE0249B229C0029DB
:1015A00000D1FAE0491E421C007800281046F6D10E
:1015B00000E02192596988680C311622AB4BFEF786
:1015C00015FF25900B201C900029229400D118E1D2
:1015D0000E4614998E4200D18DE02598405C00287B
:1015E00000D189E0491CF5E70126259806700624FC
:1015F0005BE120369E4930461A9A02F063FE0322D0
:10160000259802702198027025681598FF30994935
:101610000968014201D000F074FC1C92286800287F
:10162000249B01D000F070FC2946179801C1259138
:101630005C20285C2E465C36294614311D91002121
:10164000012805D128460C3002F031FE249B317868
:10165000686DAA6D9042099A00D10A460224D1070A
:1016600021940CD000213170421C102A00D0114668
:10167000696580001D990C58E6B2022E06D17C499E
:1016800025981A9A02F0F8FD249B219E2868401C98
:101690002860022E79D1239801686AAC26AA2046D8
:1016A000FEF74AFE2078082800D102E26AA84189A4
:1016B0008289120451180F91C188028912045118AD
:1016C000109101888278120489182591090A1D91C8
:1016D000417C0C91017C1291C17B0B91817B0E911D
:1016E00041790D9101791191C0781690100C1C90E0
:1016F0000824249BDBE03146002420461D918842CB
:1017000051D2B04201D300F016FC259A125C851824
:101710001D998D4201D9012A73D1401C01259542A2
:101720000FD2B04200D3CDE3B4426AD21146324662
:10173000259E335C335516460A466D1C401C641CBE
:10174000EDE7FF2A1D99DAD08842D8D2B44258D2A8
:101750000022259B1A55641CD1E7C31C0322934326
:101760001A1A0DD0002A0BD0C31A04462578002D72
:1017700016D0641C5B1CF9D30B46083B00F067FCD9
:101780000B46083B002200F064FC200E1C90200C4D
:101790001D90200A2590072489E01E9E00F07CFC05
:1017A000249B229C06E7B04207D22599095C421C83
:1017B000002900D002461D9200E01D90E3480090F1
:1017C00050A825993246234600F002FE519D509EB6
:1017D000539A5299DE4800901D98031B50A800F0C0
:1017E000F7FD7019539D4990489650AC48A9204682
:1017F00001F047F82078012800D03AE150A841785C
:101800001C91D44802F0BDF91C9800F021FE02F0B2
:1018100097FA2498406981680C30CF4A00F0CDFDDA
:101820000A4600239A4228D0C15C002924D05B1CC0
:10183000F8E7C046645D001010000000745D001001
:10184000845D0010545A0010FC5D0010E05B001035
:1018500008060020C804002068040020B40000200E
:10186000E45A0010F45A00100C5E00101C5E0010C8
:10187000DC63001004ED00E0DC43249840698168DB
:1018800000259A4200D00D19032606244B1B00D2D6
:10189000ADE1162900D9AEE10C30C1182A4603F09B
:1018A00095FC249B58698560219A01201070E11FE6
:1018B000C8B2401C022900D3002002281A9D4DD036
:1018C000012800D0ADE0A548807ABFF35F8F0028E3
:1018D00000D1CAE01C9818731D98D8722598987288
:1018E0005E7218682390002025902299087050AEEF
:1018F0006AA968243046224603F06DFC48A821906E
:101900003EA91E252A4603F070FF2120C0001A9B25
:101910001818314622461C4603F05DFC1B9823999B
:101920000160229941602F20C000201821992A4689
:1019300003F05BFF199825990170209D1E9E2120C0
:10194000C00021186AAC26AA204601F04FF8207882
:101950000228249B00D08AE004224DE02299259899
:1019600008701698D8721C9898721D98587223980F
:10197000119A02700F9A100E5875100C1875100AF3
:10198000D8749A74109A100E5874100C1874100AA7
:10199000D8739A730C985876129818760B98D87555
:1019A0000E9898750D9858736C48807ABFF35F8FC6
:1019B00000285AD02120C00028181C68122203F0E9
:1019C00000FC249A10461A301B998C612C46C86181
:1019D00001209076002019990876209D1E9E0920EE
:1019E000400121186AAC26AA204600F0FFFF249B84
:1019F000207802283BD105220320139908722A700F
:101A0000079801464042484101210A9A4A40024350
:101A100000D1AEE2032013990874FE1F053EB546BF
:101A2000F0BD032C1BD0062C1FD14D4802F0A9F8A5
:101A30004C4802F07FF8F4B2042C03D1042002F0E9
:101A400097F8259E304602F093F802F079F9052CBC
:101A5000209D1E9E249B0AD10120287028E501208C
:101A60000640BFF35F8F3D488672209D1E9E18681A
:101A700029E551980E21052800D9C1E605248000EA
:101A800001A108588746C046A11A0010C91A0010C3
:101A9000E31A0010B91A0010F91A0010F11D001015
:101AA00048A800F007FD0646C0B2022865D1310AF9
:101AB000A6E6209D1C9A9FE748A800F069FE012633
:101AC0000E40C007032413E050AC48A9204600F0A4
:101AD000D8FE207801281ED150A8407806243DA9C0
:101AE00077E148A800F054FE01260E40C00702240A
:101AF000002800D084E67BE106950624519448A88E
:101B0000509050A800F0A3FD010ACDB2C1B2022945
:101B10003BD12E4667E0519A06240E203DA9072AA4
:101B2000DED8900001A1095825948F46691B00104A
:101B30002D1C00104B1C0010031C0010AB1C0010CF
:101B4000CB1C0010971D0010671C0010545C001087
:101B5000645C0010150000002C5E001008060020D8
:101B6000140000001D00000048A800F0A3FCC1B252
:101B7000022900D0FFE0000AB1E7300E1C90300CC3
:101B80001D90300A2590002432E10E26C0072AD08D
:101B900050A800F05CFD010ACAB2C1B2022921D0EE
:101BA0002592C0071FD050A800F051FD010ACAB20B
:101BB000C1B2022916D01D92C00714D050A800F05F
:101BC00046FD010ACAB2C1B202290BD01C92C0075D
:101BD00009D050A800F03BFD010ACAB2C1B20229E7
:101BE00000D009E116463DA8069D0670F3E0F84ACC
:101BF000184601F057FE1623F54A0846194601F02B
:101C0000C9FB48A800F058FD032125910A060240AF
:101C1000F0494B1C3DA99A4200D1DAE0010E0D912A
:101C2000010C1291010A16911C90B4E00695022055
:101C30003F9048A83E903EA800F009FD010ACDB2B1
:101C4000C1B2022950D129465FE0069550AD48A99E
:101C5000284600F0B1FDE87802285BD150A8007852
:101C60000821259173E01020519048A8509050A869
:101C700000F0EDFC010ACAB2C1B2022906950DD0EE
:101C800025920E26C00700D12BE150A800F0DFFC02
:101C9000010ACAB2C1B2022900D0BBE01D920820DD
:101CA00025903EA81D99017053E048A800F0BEFDA4
:101CB000FF2109020140491CC20702D1FC4908402A
:101CC0000146080661D0080A09E748A800F060FD4F
:101CD00002460846012101401D91D20705212591A8
:101CE0003DA9002A57D074E00E21C0070DD03F98BF
:101CF00000280AD03E9950AE304600F05DFD3178A4
:101D0000F0780D90022800D09BE0082025903EA896
:101D100001701EE0529D2802519A110E081803907E
:101D20002804110C081804902806110A08180590B8
:101D30005099080E0D90080C12901C91080A1690EC
:101D40002B0E280C109002952E0A022025903EA9F9
:101D50000870069D2598082802D13EA80078BEE6A6
:101D60003EA800781D9050A800783AA909780E91F5
:101D70001192109A0FE0010E1291010C16911D9014
:101D8000000A1C900020259005E0080E1690080C13
:101D90001C900420259086A9129C0C701906D2B2C2
:101DA00012048918F2B212028918029AD2B2891862
:101DB0000F9103990906049AD2B212048918059A60
:101DC000D2B212028918119AD2B289181091012444
:101DD00085A9087016993DA80678062C01D13146D0
:101DE0000EE5169185A80078129086A800781190CB
:101DF00024984069816849E51692C00700D1F2E64F
:101E000050A800F024FC010AC9B2C2B2022A0ED1C5
:101E10000E46E8E61C92C00763D050A800F017FCFD
:101E2000010ACDB2C1B202292FD11D9537E7C007F3
:101E300000D1D8E63DA80570042486A80E46169960
:101E4000D2E6529E3002519B1A0E101803903004B5
:101E50001A0C1018049030061A0A1018059050A891
:101E6000427880780002821816921A46330E119337
:101E7000330C1093119B0296360A000A129001202F
:101E800025903AA81C91294642E71D96C00700D12B
:101E900005E750A800F0DBFB010ACAB2C1B2022973
:101EA00000D1FBE61292C00700D1F8E650A800F07E
:101EB000CEFB010AC9B20D91C1B2022906D10D981B
:101EC0001D90ECE67C4A314601F03CF9C00700D198
:101ED000E5E650A800F0BBFB010ACEB2C1B2022970
:101EE00001D11D96DBE6C00700D1D8E650A800F06E
:101EF000AEFB010AC9B20591C1B202290DD1059804
:101F0000DEE76748FFF7EDF8664801F03AFE00F0BB
:101F1000B1FA01F015FF01F04CFEC00700D1BEE69A
:101F200050A800F094FB010AC9B20491C1B2022981
:101F300003D10498C4E75F4AC5E7C00700D1AEE605
:101F400050A800F084FB010AC9B20391C1B2022972
:101F500001D10398B4E7C00700D1A0E650A800F073
:101F600076FB010AC9B20291C1B2022905D10298D9
:101F7000A6E71A989030FEF78DFBC00700D18EE6D9
:101F800050A800F064FB010AC9B20F91C1B2022946
:101F900001D10F9894E7C00700D180E650A800F067
:101FA00056FB010AC9B21091C1B2022901D11098A1
:101FB00086E7C00700D172E650A800F048FB010A8E
:101FC000C9B21191C1B2022906D1119878E7C04671
:101FD0003C5E0010FFFFFF01C00700D15FE650A884
:101FE00000F035FB010AC9B21691C1B2022901D134
:101FF000169865E7C00700D151E650A800F027FB0E
:10200000010AC9B20B91C1B2022901D10B9857E75D
:10201000C00700D143E650A800F019FB010AC9B27D
:10202000C2B2022A01D11D9139E6C00700D136E6BD
:102030003EA8259A02703AA8169A027007202590A9
:1020400050A81D91169532460F9E119B2AE69A4282
:102050000ED884186468144E351B25438458361BEB
:102060002643124C26402E40A64201D10832EEE70C
:10207000891A04D1209D1E9E249B229C0CE080186E
:10208000209D1E9E249B229C0278002A01D1FFF7EE
:1020900091FA401C491EF7D1219AFFF722FAC04657
:1020A0001300000011000000000101018080808009
:1020B0000000FFFF1C5F00102C5F001080B500AF18
:1020C00007229201815080180021017180BDD4D473
:1020D000E0B502AF044600253D20C600B54244D01D
:1020E00026484019009001F011FF009A116900295B
:1020F000019100D103211161C0B201F031FFAD198E
:1021000001980028E8D11D4840191D4945181D486F
:10211000E861284620302146FFF7D0FFAC6101F08E
:10212000F5FE216825606961C0B2002900D140BF79
:1021300001F016FF01F0EAFE256800212160C0B21F
:1021400001F00EFF002D0ED001F0E0FE2969022201
:10215000914329616E69C0B201F002FFE969284626
:1021600088473546EEE720BFE4E7074801F009FD60
:1021700000F090F901F0E4FD01F01BFD28010020C2
:1021800018FEFFFFBD06001005000000F8B504AF03
:102190000C460646C178204600F0C8FBC0B20225B6
:1021A000102812D1B178204600F0C0FBC0B2102830
:1021B0000BD10020305EC21341005140204600F098
:1021C0008BFBC5B2102D00D002252846F8BDD4D413
:1021D000F0B503AF89B00546007900242146FEF72B
:1021E0003DF92A48006803902949022005900860BB
:1021F000284A106902901068019001235E04264865
:1022000006960660281D049007909B06234D042C1B
:1022100009D007AE36593678F606B60D1E4316615C
:10222000D560241DF3E702981061019810600398AF
:1022300084071B4E0C4600D5344605982060134C8D
:102240002468039408601469029414680194069C3D
:10225000114E3460049C08940026042E0BD008AC68
:10226000A4592478E406A40D1C4314612C467F3441
:10227000D460361DF1E7029B1361019B1360039A42
:10228000920700D50649086009B0F0BD0000205053
:1022900000302050E4002050E430205001E00000E5
:1022A00000202050F0B503AF89B030490968039190
:1022B0002F4A012111602F4B1C6902941C68019464
:1022C0004C042D4D05942C600690001D0490079041
:1022D000072044038D06002004280BD007AE365893
:1022E0003678F606B60D2E431E6126468136DE6030
:1022F000001DF1E702981861019818600398C00763
:102300001E4E104600D03046016018480068039009
:10231000116018690290186801900598164E306097
:10232000049808900020042809D008AE3658367862
:10233000F606B60D2E431E61DC60001DF3E7029821
:102340001861019818600398C00700D00B4A11600B
:1023500006994879002801D1042000E00620085C95
:102360000321FEF77BF809B0F0BDC0460000205005
:1023700000302050CC002050CC3020500020205085
:1023800080B500AF04490A6B002A03D10020C04386
:10239000086380BD01F0BCFAB400002080B500AF36
:1023A00006C808388A4201D1002080BD4A1C02605C
:1023B000490040180189012080BD80B500AF172970
:1023C00000D280BD16230846194600F0E3FFD4D49E
:1023D000D0B502AF86B09A4205D3D21ACC181AC033
:1023E000026006B0D0BDB9680020049001220192BD
:1023F000034A0092039004200290684600F0C0FE59
:10240000105B0010D0B502AF0C46994204D11146C2
:10241000224603F0EAF9D0BDBA682046194601F019
:10242000E5FAD4D4B0B502AF0C460546074801F032
:1024300081FBE80706D0012001F09AFB204601F05D
:1024400071FBB0BD002001F093FBB0BD1B0000008C
:10245000D0B502AF0446054801F06CFB60B28000C5
:1024600003490858007801F083FBD0BD1C00000030
:102470002C68001080B500AF044801F05BFB0448F5
:1024800001F058FB01F05FFB80BDC0460300000077
:102490001900000080B500AF044801F04BFB044870
:1024A00001F048FB01F04FFB80BDC0460300000077
:1024B0001A000000F0B503AF89B0054600F068F9D6
:1024C0000C46C00702220023002801D021469CE0D0
:1024D000029204930120039007AE3046294600F093
:1024E000D0F93078012804D107A840780002801C78
:1024F00074E00898002821D001285FD102260696B2
:10250000059505A800F0A3F8010ACAB2C1B20229D4
:1025100011D00E21C00759D00698002856D000913E
:102520000192059907AD284600F0ABF928780128FB
:1025300032D107A842780398114649E0022008905A
:10254000079507A800F083F8010ACAB2C1B20026B5
:102550000125022901D1304614E001920E2100919B
:10256000C0072DD007A800F072F8010AC9B2C2B2A4
:10257000022A02D130460A4604E0C007019A21D05F
:1025800000250846002D00D1060410028119681E9E
:1025900085416800084321E0089800280AD00228F5
:1025A000019A04D0012810D10121002010E0002060
:1025B00031460DE000200146019A09E00E2095E722
:1025C000304600E00020009ADCE700990A460398B4
:1025D000002801D11004461C08023018049BC1B227
:1025E000022903D1FF2109020840C01C0B49014008
:1025F000090AC2B2032A01D1029A06E0022A0AD0CD
:10260000039A14400B0401462246C8B20002184344
:10261000104309B0F0BD0E21F7E7C04600FFFF00F0
:10262000D0B502AF01214C06416800290DD0491EEA
:102630004160006800F040F80321090602460A40A4
:10264000A24201D1C0B20843D0BD2046D0BD80B562
:1026500000AF4168002908D0491E4160006800F0C1
:102660001CF8C00703D1012002E0002000E0022096
:102670000902081880BDF8B504AF0C4605460026CF
:102680000C2E08D0A8192146FFF780FDC1B2361DD7
:102690001029F5D0F8BD1020F8BD80B500AF0CC8EA
:1026A00008389A4203D0511C0160117800E00421DF
:1026B000D21A5042504180BDF0B503AF85B00446F8
:1026C00003AD2846214600F0DCF8012042062878B8
:1026D000012803D103A84078002651E004990E2078
:1026E000002601294CD800910190029203AD2846A2
:1026F000214600F0C6F82878012803D103A84078C5
:10270000029A3DE0049D042D09D8204600F08EF881
:10271000C10707D0FF2109020840401C07E0029AC8
:1027200001982DE0410CC003C01748400004C107C8
:1027300003D116490840401C04E00F21090400029F
:102740000840801CFF21C2B2022A01D1134601E0D9
:102750000B060340090401405918090C022A01D153
:102760000846CDE7C007029A019809D003A8018066
:10277000EAB21204407800021618009802060846D1
:102780001643C0B2304305B0F0BDC0460000FFFFA5
:1027900080B500AFFFF781FFC0070122002809D1F3
:1027A000CBB20020002B014602D0012B01D11146F3
:1027B00080BD0621104680BDFEB506AF044603204D
:1027C0000290019101A8FFF72BFF0546000E032898
:1027D00003D10220E0702570FEBD022822D001A89E
:1027E000FFF71EFF0646000E032803D10220E0700B
:1027F0002670FEBD022815D001A8FFF711FF010EBB
:10280000032903D10221E1702070FEBD022909D005
:102810002081A6802580000C6081300CE080280C8F
:102820006080FEBD0220E0700E20EDE7F8B504AF39
:1028300004460025EE43022E17D02046FFF72DFF59
:10284000C00716D1761C7F2008400722724392B23F
:102850009040054348B20028EDD4022E0DD1C8B2F5
:1028600003280AD90520010205E005200002401CCA
:10287000F8BD0807010D012001E0290400200843EC
:10288000F8BDFEB506AF029101900026F44335462F
:10289000042C12D00298FFF700FFC00711D17F204F
:1028A0000840B0400543F61D641C48B20028EFD430
:1028B000042C0CD1C8B20F2809D905200199487001
:1028C00002E001984170014601200870FEBD0199A7
:1028D0004D600020F9E7D4D4BCB504AF044601A88C
:1028E00000228270028089B2012004280CD001AA43
:1028F0001218531E1970CA0909D0C9B280250D4398
:102900001D70401C1146F0E7032201AB06E001A94F
:102910000322054BFDF76AFD03460A462046194689
:1029200000F012F8BCBDC046D85C0010E0B502AFA4
:102930006B4600221A71DA709A705A70197001226F
:10294000194600F001F88CBDF0B503AF87B014460E
:102950000646002C43D002910A7804AD2846314641
:1029600000F0C6FB2878002803940FD0012816D168
:102970003569B068069C059A29461B4B01F002FF99
:102980000470F068A84228D0002105E004A9F0688E
:102990003269904221D049780170401C17E004A8A8
:1029A000447A3569B06806990191059A29460D4B1C
:1029B00001F0E8FE01990170F068A8420DD00470A2
:1029C000411CF160A94208D000214170801C02998D
:1029D000491CF060039C641EBBE7022000E010204D
:1029E00007B0F0BDD05B0010C05B0010F0B503AFC6
:1029F0008FB006920E4602908E20085C2831099115
:102A00003346503335468E35414A002807930395A7
:102A100020D0032800D02FE1184614300890187DEC
:102A2000002839D0032800D029E10998014608314F
:102A30000591007A4000C046784480884000874471
:102A4000050021012701B500AB00A00031697569BF
:102A5000B4691EE1B06EF26E089230673446783485
:102A60001621204601F00BFFFF2002300B900022C0
:102A70000A920E95089D304679300D900C94287876
:102A80007844007940008744022E20240B45691CBD
:102A90000AA8FDF70DFC21E0B568F468316E4DE140
:102AA0000AA80421FFF742FFC0B2102857D1012520
:102AB000072D36D00898415D0AA8FDF79FFB044614
:102AC000C0B26D1C1028F3D04AE06A780AA802212F
:102AD00002E06A780AA80321FDF7DAFB0446C0B2D7
:102AE00010281ED03CE005920AA80121FFF71EFF26
:102AF000C0B20224102833D1A878C04678440079A7
:102B000040008744039C727866B0B484E91CBFE738
:102B1000000020500AA80521FFF708FFC0B21028C6
:102B20001DD10D9C0B9808900A9A0E9D0C98F34BA2
:102B30000590294601F026FE2146089A02700224DB
:102B4000A9420DD000200870059A002A08D0881AE2
:102B5000411C7167326071600C46079BDFE0022404
:102B6000ED4801F00EF82046FFF772FC01F0E8F89E
:102B700003200125C0B200024019029A03C20120BD
:102B8000A2E134463834187800281AD0032800D13E
:102B900023E1D44800F050FF18460C300490187B15
:102BA000002810D0032870D1B06DD6E034463834F8
:102BB000187800280BD0032800D174E1CB4800F02E
:102BC0003BFFB06CF9E0716BB56BF46BDCE0B16CA2
:102BD0009FE00AA80421FFF7A9FEC0B21028BFD1C8
:102BE000A9880AA8FFF778FE79E70AA802242146F7
:102BF000FFF79CFE2FE00AA80321FFF797FEC0B263
:102C00001028ADD1281D0AA9FFF7C0FA66E70AA867
:102C10000721FFF78BFEC0B21028059AA0D1ED1C4A
:102C2000102A00D17DE7A95C0AA81446FDF7E6FA50
:102C300022460446C0B2521C1028F1D090E70AA8E0
:102C40000121FFF773FEC0B2102889D1297C0AA8A0
:102C5000FDF7D4FA0446C0B2102881D1281D0AA974
:102C6000FFF709FD3AE7EA780AA8052134E70AA840
:102C70000621FFF75BFE32E79F4800F0DDFE9D482E
:102C800000F0DAFE9A4800F0D7FE974800F0D4FE34
:102C9000FEDEF161356274620020002C2AD0C87912
:102CA00000282DD096480A900AA801F0EFF80246B5
:102CB0000B468C4200D31C46204611461A46934BC5
:102CC000FDF794FB924A00922A462346FFF79AFBAF
:102CD0008B4AD068001951684900411A00D3084650
:102CE000BFF35F8FD0607C4A1068102101431160F0
:102CF0002046079B0121089A1170059A11700AE07D
:102D00001068C00700D0B9E000201870B1643446E4
:102D10003834F16493E0716F0C1A74677168002C99
:102D200016D0081B16D300211975316F3166326831
:102D30001518B560F460184614300890316175615B
:102D4000B4610020099A107208320592614AA0E726
:102D500000250FE76F4A00F0FAFA5168C90303D45F
:102D60001061F56C306D14E05B4A1068102101436E
:102D70001160069806C86248283001F0A3FA0320C3
:102D800004990870042097E031647564B4642819CC
:102D90003065854206D0681CF0642878316C716516
:102DA000B065DAE70020012119731870B16CB062C8
:102DB000F162F069B06434463834F0645068C001A0
:102DC000FCD50AA85F22002301F0C4FA0C980A99E6
:102DD0000B9AB163F263099908762046069901F0CF
:102DE000D1FA002826D101253D480560F06CFFF797
:102DF000EFF901F08BF804464348FFF7C1FA34209D
:102E00003F490D54086B401C0863E0B201F0A8F87C
:102E1000022032490860079B1D70099805720178ED
:102E200002294BD0F06A089A1570C90700D172E7E1
:102E300000209FE603200799087005203CE001F080
:102E400065F82F490A6B2F4B9A4241D2C0B2342207
:102E50008D5C01F085F8002D19D002202049086012
:102E6000F06CFFF71FFA10201C4908600120086071
:102E7000079B1870F169356A746A164A7163B56305
:102E8000F4630020187318460C3004907CE70AA8FD
:102E90000822002301F05EFA0C980A990B9AB1639C
:102EA000F263099908762046069901F06BFA00282A
:102EB000C5D0032007990870059908700320089968
:102EC00008700221029A1170039908700FB0F0BDCA
:102ED00000F036FD000020502C0120500020205032
:102EE00000302050945A0010645A0010B45A001058
:102EF000D45A0010E85C00104C5E0010B05B00106B
:102F0000B4000020FFFFFF7FA45A0010745A001085
:102F1000845A00105C5E001016000000FEB506AF7B
:102F2000564A9568012000904402554B1869554E49
:102F300000282BD05869002828D0A80726D5184685
:102F40001030019001A800F0A1FF00291CD0002240
:102F50003368234206D18A4204D2336A1B0E83545B
:102F6000521CF5E7464BD869801859694900411A47
:102F700000D30846BFF35F8FD861802042490860C4
:102F80001846203001F0C9F93D4B3C4AE8063ED5D1
:102F900080203D490860186800281BD05868002828
:102FA00018D0586899680918D8685A6852008A1A5F
:102FB00000D31146814221D0029302A800F08DFF78
:102FC00000223368DB030ED48A420CD2835CF360A8
:102FD000521CF6E71068102188431060184628300C
:102FE00001F09BF913E0264B986880185968490056
:102FF000411A00D30846BFF35F8F98609868D9687C
:1030000088421E4A03D11068102188431060E805E9
:1030100004D50098F06280201B490860254214D036
:1030200000F074FF04461948FFF7AAF93420002184
:10303000134A1154106B401C1063E0B200F090FF73
:103040000220F062802010490860680514D500F065
:103050005DFF04460E48FFF793F934200849009AB3
:103060000A54086B401C0863E0B200F079FF0420AA
:10307000F062802004490860FEBDC0462C0120504B
:10308000B40000200400205080E200E0CC59001081
:10309000DC59001080B500AF00F000F8E0B502AFD9
:1030A00000200090C04301906846FFF711F8D4D487
:1030B00080B500AF02482F21024A00F08DF9C046CA
:1030C000905E0010A0580010B0B502AF0C46054647
:1030D00000F01CFF05490A692A430A614A69224334
:1030E0004A61C0B200F03CFFB0BDC04608060020F7
:1030F000D0B502AF13060CD00B795C1C0C714B7968
:103100005B1C4B71E4B2FF2C0FD0002101704270A8
:10311000D0BD012202704A790B79FF2402348C80E1
:1031200003720B68436098180AE04272FF22027231
:103130000224047002328A800A684260D8B21018F1
:103140000860D0BD80B500AF8CB001910090002028
:1031500006900220039008490291059008A8049067
:1031600006480B9069460A91099001A8089002A8A8
:10317000114600F005F8C04608600010BD37001089
:1031800080B500AF84B001AA0123138102910190A0
:10319000104601F0A5F9D4D4F0B503AF8BB0594B6C
:1031A0000A935B1C089080680340059101D02B2195
:1031B00001E01121090407910126F1050140CD0D1F
:1031C000590D8B18089CA1898B4206921CD2039141
:1031D00009950496C10127D40A9901400A910399DF
:1031E000CD1A4000800F0026099B800001A10858DD
:1031F0003146874691320010053200108D320010A2
:1032000005320010294643E011CC0A902146079A66
:103210002B4600F07DF800284DD1E3680A98059907
:10322000069A9847064646E00293A5683648284025
:1032300036494018A060E068019041CC0A903146C0
:10324000079A099B00F064F8002833D10995029889
:103250000399081A002485B2A0B2A84207D23269A5
:1032600030210A989047641C0028F5D022E0F368CA
:103270000A980599069A98470028049E1BD1089839
:10328000099981600199C160002614E0A8B2410843
:1032900003952568606808900C46A0B2B1B28142DF
:1032A0000CD20898026928460A999047099B761C17
:1032B0000028F2D0049E30460BB0F0BD2846089995
:1032C000079A00F025F80028049EF4D10898C368F6
:1032D00028460599069A98470028ECD10398001BC8
:1032E000002486B20994A0B2B04208D208980269BC
:1032F00028460A999047641C0028F4D0DAE7099E12
:10330000D9E7C046FFFF1F000000E09F300000200B
:10331000F0B503AF81B01C460D46112109048A4265
:103320000AD02B69064611469847014630460029C7
:1033300002D0012001B0F0BD002C05D0EB680022C6
:103340002146984701B0F0BD002001B0F0BD80B526
:1033500000AF00F001F8D4D480B500AF8CB001917B
:1033600000900020069002200390084902910590E9
:1033700008A8049006480B9001A90A910990684694
:10338000089002A81146FFF7FBFEC04640610010FE
:10339000BD37001080B500AF00F000F880B500AF79
:1033A0008CB0019100900020069002200390084903
:1033B0000291059008A8049006480B9001A90A9173
:1033C00009906846089002A81146FFF7D9FEC0464A
:1033D00060610010BD37001080B500AF88B00023D9
:1033E00004930124019406AC0094039304230293F4
:1033F0000791069068461146FFF7C2FEF0B503AF8D
:103400008BB00268089242688D68E800830F00D193
:1034100008E1002814D4102A37D2002A00D1EAE0AB
:103420000C460026304603E0401C824200D1AFE04B
:1034300008990B564021C9438B42F5DD761CF3E712
:1034400001950291C889002800D199E0089DA9182A
:103450000022164606E0651C2C1BA218761CB04202
:1034600000D191E08D4200D18DE02C460023ED5635
:10347000002DF0D5EDB2E02D03D3F02D03D3251DA3
:10348000EAE7A51CE8E7E51CE6E7019502910323BE
:10349000D9430898C41C06910C40051B0092511991
:1034A00007910393194000220994844216460A9218
:1034B00075D10029079D10D0069A2A4009988418D2
:1034C0000022164602E0641C491E06D0A056402386
:1034D000DB439842F7DD761CF5E7AC080A98301814
:1034E0000A906D48099D14E00022079C069EA41BCB
:1034F0000499099B5D18110A664B1A4019408918F6
:10350000634A5143090C0A9A8A180A92059B002BB8
:1035100055D1002C3ED02B46C02C224600D3C022D1
:10352000154603990D400595069291000794042CC9
:1035300009930491D8D33F2212010A409E18002219
:103540005C68A509E443E4092C4304401D68A9090B
:10355000ED43ED090D430540A91861189A689409D7
:10356000D243D209224302405118DA689409D24367
:10357000D2092243024052181033B342E0D1B4E7DB
:103580000022134600E0831BC61A0299019D34E015
:10359000214632E0009A0299019D0A9E2DE0002208
:1035A000089C0A9202E0641C6D1C82D2A056402343
:1035B000DB439842F7DD0A98401C0A90F3E7FC21B0
:1035C0000E40B100099A52189B00002610CAA509A6
:1035D000E443E4092C430440A6191B1FF6D1300A2A
:1035E0002C490E400840801929494143080C0A9E85
:1035F0008619009AC9E7002216468889864211D2A8
:103600000092264A2A400992831B6800800F0026F8
:103610003446C04678440079400087440B01090BCA
:103620001C4607E003C9CB68089998470BB0F0BD6A
:1036300098B24408069308680A904D6801200790E4
:10364000A0B2B1B2814207D22A690A98099990477B
:10365000761C0028F4D015E0EB680A980899009AC7
:10366000984700280ED10698001B002486B20894C3
:10367000A0B2B04209D22A690A9809999047641CFD
:103680000028F5D007980BB0F0BD08980BB0F0BD3E
:1036900001000100FF00FF0001010101FFFF1F0009
:1036A000F0B503AF89B000240894434B05AD0BC5BA
:1036B00010690490002847D05069002868D018216C
:1036C0004143039107214907401E8843401C019054
:1036D00094680292156800266A68002A06D0069847
:1036E000C36829680598984700285FD10498801915
:1036F00001890023002907D001291A4605D1C16894
:10370000C90061188A8800E042890499895B02290E
:1037100007D0012904D14168C90061188B8800E0F5
:10372000438805A9CB818A81426907920069C2005A
:10373000A058A21852689047002837D1083518368B
:103740000398B042C8D121E0D068002820D0946806
:10375000C100651807214907401E8843401C01909D
:10376000029216687268002A06D00698C36831680B
:1037700005989847002819D105CC05A9083C904721
:10378000002813D108360834AC42EBD1029A019CD0
:10379000506884420DD2E000126811581018426837
:1037A0000698C36805989847002802D0012009B000
:1037B000F0BD002009B0F0BD200000E0F0B503AF7F
:1037C00087B001910668F0087D28009647D30A2249
:1037D000039230462F4C214601F034FD02904443C1
:1037E000301B82B292082C494A43530C5D002B498E
:1037F0004C5D04AA03995218111F0C70D11E274C5E
:10380000641964780C7064215943401A80B24000F6
:10381000224C215C931E1970029B20184078511E87
:10382000039A0870121F1E4886421E46D0D8092BE4
:1038300019D998B2800818494143490C642048437B
:10384000181A80B24000154B1C5C1646921E04AD3F
:10385000AC54AC19641E18184078207004E00A2299
:103860003346092BE5D819460098002801D00029D5
:1038700007D00807C00E094908184078521E04A94D
:10388000885404A881180A20821A0198FFF784FC42
:1038900007B0F0BD102700007B1400001860001076
:1038A0007F96980080B500AF00F000F880B500AFBB
:1038B0008CB00191009000200690022003900849EE
:1038C0000291059008A8049006480B9001A90A915E
:1038D00009906846089002A81146FFF751FCC046BF
:1038E00094610010BD37001080B500AF03C9CB68EC
:1038F00001490B22984780BD3D5F001080B500AFA5
:1039000003C9CB6801490E22984780BD485F00106B
:1039100080B500AF8AB001460020059001200290DA
:10392000054A0192049007A803900448089009A84A
:10393000079001A8FFF724FC685F0010FD38001015
:1039400080B500AF8AB000200590012002900649A2
:103950000191049007A803900448089009A80790D3
:1039600001A80349FFF70CFC8C5F0010E938001038
:10397000C45A001080B500AF8AB0282001900948D1
:1039800000900020069001200390074902910590C5
:1039900008A80490054809906846089002A80449C0
:1039A000FFF7EEFBA865001028620010FD33001041
:1039B0003866001080B500AF88B000200490012068
:1039C000019006490091039006A8029004480790D0
:1039D0000448069068460449FFF7D2FB28620010AD
:1039E000FD330010CC5F00108C62001080B500AF7A
:1039F00003460846194600F001F8D4D480B500AF5C
:103A00008CB001910090002006900320039008489C
:103A100002900220059008A8049006480B9001A986
:103A20000A9109906846089002A81146FFF7A8FB82
:103A3000F8610010BD37001080B500AF86B00146B8
:103A40000020049001220192034A00920390042076
:103A500002906846FFF794FB0461001080B500AF48
:103A6000FEE780B500AF80BD80B500AF026840685A
:103A7000C3681046984780BDE0B502AF00200190B2
:103A8000802903D201A8017001212FE0C80A0AD1C0
:103A90003F200840803001AA50708809C0210143AE
:103AA0001170022122E0080C0ED13F200840803026
:103AB00001AA9070080BE023034313700805800EE1
:103AC00080305070032111E03F220A40803201A86B
:103AD000C2708A0CF023134303700A05920E8032E1
:103AE00082708903890E80314170042101A800F0A1
:103AF00061F900208CBDD4D480B500AF0A46496876
:103B0000012900D000290249FFF7CAFD80BDC04647
:103B10001062001080B500AF0846114600F04AF967
:103B2000002080BDE0B502AF019001A8042100F0A3
:103B300041F98CBDE0B502AF01AA10800221104608
:103B400000F038F98CBDE0B502AF01A8002101807A
:103B5000022100F02FF98CBDD0B502AF0446034816
:103B6000FFF7E8FF2046FFF7DDFFD0BD01000000B2
:103B7000E0B502AF01AA10700121104600F01AF959
:103B80008CBDD0B502AF044600F0B0F82046FFF778
:103B9000D1FFFFF766FFD0BDD0B502AF044600F0FD
:103BA000A5F82046FFF7C6FFFFF75BFF00F0C8F857
:103BB000D0BD80B500AF00F000F880B500AFFFF7D2
:103BC000F9FED4D4F8B504AF044610480090C06A9A
:103BD00003210140022901D00E4D00E00C4D0026CA
:103BE000009818300090F0070AD10126009821466D
:103BF0003246A8470028F8D0012802D1641CF2E719
:103C0000F8BD0121044AFFF7A2FBC0468400002052
:103C10001D3C00105D3C001000630010F8B504AFBF
:103C200004460020002A15D02569E368BFF35F8FA2
:103C30009D4202D9DE43AD1906E0074E002D02D0A9
:103C4000F51A6D1C00E0F51A002D03D000952046F2
:103C500000F010F8F8BDC046FF030000DCB504AF6B
:103C6000C368BFF35F8F0124A402009400F002F840
:103C7000DCBDD4D4FEB506AF02910646BD689542C0
:103C800000D31546EC181049481C84420ED97068C0
:103C9000C018C91A01964E1C0299324601F0A5FDC2
:103CA00002988119AA1B019E706803E07068C01811
:103CB00002992A4601F099FD03480440BFF35F8F43
:103CC000F4602846FEBDC046FF030000E0B502AF29
:103CD00001A908700846FFF775FF8CBDE0B502AF7B
:103CE00001A908700846FFF76DFF8CBDFEB506AF51
:103CF00000F00CF90F490A78002A0ED1C2B2012057
:103D000008704A708A78002A05D1887068460021B8
:103D10000170FFF757FF06B080BD0020049001211D
:103D200001910549009103900420029068460349DF
:103D3000FFF726FA08060020306300109863001091
:103D4000B0B502AF86B0184D287800281ED0E878AC
:103D500000280FD0072807D20021C94381402A79C3
:103D60000A437F20104003E07F21C9437930084394
:103D7000FFF7B4FF00242046FFF7B0FF2C71EC7072
:103D800068782C7000F0ECF806B0B0BD002004900C
:103D90000121019105490091039004200290684699
:103DA0000349FFF7EDF9C04608060020C463001080
:103DB000CC630010F8B504AF044645181F4A1079CB
:103DC0000090D678AC4237D02078F1B207290CD3D6
:103DD000641C002810D0FFF779FF184A761CD670B3
:103DE000F0B28628EED1FF200BE0002811D0FFF7BB
:103DF0006DFF124A009813E07F20C04379360643D6
:103E00003046FFF763FF0D4A00261671D670009604
:103E1000D8E70120884000990143117100910846BC
:103E2000641C761CD670F1B20729CBD1072600217D
:103E300000910106C6D0E4E7F8BDC04608060020A0
:103E400080B500AF0146014880BDC046DC6300106C
:103E500080B500AF00F004F880BD80B500AF80BD34
:103E6000D0B502AF044600F051F8216902220A439E
:103E70002261C0B2890706D4A1690A680C60626138
:103E8000002A00D140BF00F06BF8D0BDF8B504AFF8
:103E90000468A368BFF35F8F226860681D1A194623
:103EA00000D329460092E5682E1A2C4600D33446EA
:103EB0000E1B721E96415A1B534253413343A1427B
:103EC00000D80146091B009A1019002B01D002D01E
:103ED000F8BD1946FCD11046F8BDD0B502AF026856
:103EE000D168BFF35F8F1068536892688A4201D12E
:103EF0000021D0BDD41A00D32246CC1A00D32146CB
:103F0000914200D81946891A8018D0BDF8B504AF7F
:103F100000F04CFC04460D20000700680E490978AB
:103F2000BFF35F8F461CF0B2814201D1022411E041
:103F3000012000900440094D00F032FC2868002860
:103F400004D1002CF8D100F02DFCF5E702480670F2
:103F5000009844402046F8BD100300207C0100D0AA
:103F600080B500AFC1B2022909D0054900220A700C
:103F7000044901220A60000601D000F013FC80BD54
:103F8000100300207C0100D080B500AF4106890FEE
:103F900005D18000001DC0B20549401880BD02480F
:103FA0001D21024AFFF718FA7C640010006500101A
:103FB00000C00140B0B502AF0446FC250540FFF744
:103FC000A5FF07496A58A307DB0EFF249C40A243C4
:103FD000C0249C4014436C50C0B2FFF7C1FFB0BD79
:103FE00000E400E080B500AF04490A6882430A603B
:103FF0008A68D2431042FBD180BDC04600C0004059
:1040000080B500AF034A1168506813689942FAD12D
:1040100080BDC0462440054080B500AF04490A6A0F
:10402000002A03D10020C043086280BDFFF770FC66
:1040300008060020F8B504AF0C4605460C4EB061EA
:10404000F1610C480560FFF7DBFF421B0A46A24105
:1040500006D30122074B1A610022D243B261F261FA
:10406000401BA14101D30020F8BD0120F8BDC0468E
:104070000806002010400540FEB506AF02910190F1
:1040800016685568FFF742FF04461B48FFF7C4FF58
:104090001A4886422BD1E4B2A868002807D003CD85
:1040A000019A083D801A0298814109D217E015490A
:1040B000486A4D620028019A00D10820A860029841
:1040C0002A6068600F4D2435FFF79AFF02462846A4
:1040D0000B4600F071F9FFF7ADFF0028F4D0094856
:1040E000016A491C01622046FFF73AFFFEBD044801
:1040F000FFF752FDFFF75DFD78650010DC630010EF
:10410000040000000806002080B500AF0120C103B4
:104110000A48016002688A42FCD105218903416096
:1041200042688A42FCD1002141604268002AFCD1E9
:10413000016001680029FCD180BDC046000001403B
:10414000F8B504AFFFF7E2FE134A01215162134DA7
:10415000AC69EE69C0B20090FFF752FF001BB1419D
:1041600002D20D48046013E00D480E4EFFF754FFD5
:10417000FFF746FF0246284624300B4600F01CF9A4
:104180002A6A521C2A62FFF755FF00283046EDD0FC
:104190000098FFF7E5FEF8BD104005400806002036
:1041A0008865001098650010FEB506AF0D20000769
:1041B0000068022822D23021414315480818019096
:1041C0001448081802900026134C35461E2D14D0B2
:1041D0001C2131400F2088406A080C211140029AAE
:1041E0005218126A024204D0019A5050204600F040
:1041F00094F86D1C0834361DE8E7FEBD02481C210A
:10420000024AFFF7E9F8C046506400106C640010E1
:10421000007101400041014074030020F8B504AF73
:104220001148006800900024104E114D0C2C0DD048
:10423000306800280ED40098E040C00702D028461D
:1042400000F06BF8641C08354036EFE7064800992B
:104250000160F8BD0748FFF794FC2046FFF77CFC9F
:10426000FFF76EFDFFF7A5FC0C0400500C0000509A
:10427000140300200F000000F8B504AF04460668E0
:10428000002E05D06568954207D18E4205D1F8BD54
:1042900009681046884703C4F8BD09681046884776
:1042A00003C4002EF3D0716828468847F8BD80B556
:1042B00000AF016800220260002902D0406849680E
:1042C000884780BDFEB506AF15460C460646FFF78B
:1042D0001DFE2A463568002131607168C0B2029027
:1042E000002D05D0914203D1A54201D1356010E0E7
:1042F00001912168104688473268306070687160AB
:10430000002A01D0D1688847002D02D0E9680198C1
:1043100088470298FFF724FEFEBDF8B504AF0546B6
:10432000FFF7F4FD2C6800212960C6B2002C0DD0E7
:1043300000966E68A1683046884768686E60009E87
:1043400029682C60002901D0C96888473046FFF7EA
:1043500007FEF8BDF8B504AF0093164605460024E5
:10436000FFF74EFE009B82190A465A4122466241DF
:10437000012A05D02C728019286059416960F8BD66
:10438000FFF7F8FAB0B502AF0D460446007A0028F0
:104390000AD0FFF735FE02460B4603CC083C121A42
:1043A0008B4103D30020B0BD03CC083C2A46FFF765
:1043B00063FE01202072B0BDF0B503AF87B0059356
:1043C0000492044600200390C5430195069502948B
:1043D000266808203043082829D031687068049A7C
:1043E000521A059A824115D20B462C46019D6B400C
:1043F00002466A4025461A430B1B0346069CA3410E
:1044000000D3204600D32946002A029C0AD10D463B
:10441000069002E03046FFF723FDB0682060039865
:10442000B060D5E708360D4606903446CFE72846FB
:10443000069907B0F0BDD4D4F0B503AF8FB00068D3
:104440000268019245680E684C68E3681F490C22B7
:104450003046029398470121002834D10091002072
:104460000790032004901A490391069009A805902B
:1044700018480E900C9018480A90099528460C3060
:104480000D9008350B9503AA30462146FFF708F931
:10449000002801D0009916E0104902223046029B04
:1044A0009847002800990ED109A81822019901F017
:1044B0009CF90A98012800D0002809AA3046214614
:1044C000FFF7EEF8014608460FB0F0BDB05F0010F0
:1044D000985F0010BD370010FD330010BC5F001066
:1044E00080B500AF8CB0054600F05AF91448017849
:1044F000002922D10124047000951248FFF741FBE6
:104500001148FFF717FB1148029068460190002000
:10451000079004940E480390069409A805900D484E
:104520000A9001A809900BA803A9FFF7E5FA0A4829
:104530002146FFF73FFCFFF703FC00F00FF8C046F1
:104540006404002012000000020000004866001011
:1045500028620010693A00103062001080B500AF88
:1045600000F000F880B500AF00F025F9F0B503AF1A
:104570008BB007214D0303218A03039205225603C2
:1045800049030291012291030191510304910178A1
:104590000023890001A46458A746C04609460010BC
:1045A000454600101D46001031460010C945001058
:1045B000C94500100F460010C9450010C94500103C
:1045C0006F46001087460010D30304A4615804937B
:1045D000019302931E4603931D468F460946001021
:1045E000454600101D46001031460010934600104D
:1045F000A54600100F4600109D460010B34600105F
:104600006F460010874600104178807854E0827829
:10461000C178C9001143407833464DE04178002904
:1046200051D020294FD81F2211408078019B43E0B0
:104630004178002953D0202951D81F221140807879
:10464000029B39E0C3780479002C02D0022B6AD196
:1046500002238178022B01D1072970D8621E944170
:1046600022011143407880001843049B24E04378E2
:10467000072B40D88178C90019430279C0784000DF
:104680001043039B18E041781F2940D880782B46BF
:1046900012E0817840784000084308E0417810310A
:1046A000002009E08178407840000843001D002187
:1046B00002E0417810310420C0B242011A43C8B26E
:1046C00010430BB0F0BD00200990069226490591D9
:1046D00008900420079005A82549FEF751FD002009
:1046E000099006922049059108900420079005A89A
:1046F0001E49FEF745FD00200990069218490591D4
:1047000008900420079005A81649FEF739FD0020FF
:10471000099006921049059108900420079005A879
:104720000E49FEF72DFD00200990069211490591D2
:1047300008900420079005A80F49FEF721FD0020EE
:10474000099006920D49059108900420079005A84C
:104750000B49FEF715FDC046E8670010F067001032
:10476000B4670010BC670010746700108C670010FD
:104770007C6700103C670010446700108C660010D6
:10478000F466001080B500AF091A8A4201D2801881
:1047900080BD02481B211A46FEF71EFE006800106D
:1047A00072B6704762B6704700BF7047EFF3108073
:1047B000704740BF704700DEFEDE20BF7047F0B597
:1047C00003AF102932D34442032214400319984204
:1047D00018D2651E002C0BD000260670012C03D1C8
:1047E000401C032D06D20DE04670022C42D1801CE5
:1047F000032D07D30025C570857045700570001D19
:104800009842F7D1091B08469043181883420CD2EE
:10481000002410C3834208D210C3834205D210C3C0
:10482000834202D210C38342F2D311404218904215
:104830001AD203230B40491E002B0BD00024047016
:10484000012B03D1401C032906D20DE04470022B3A
:104850000BD1801C032907D30021C17081704170E6
:104860000170001D9042F7D1F0BD8470C01C032977
:10487000F2D2F9E78670C01C032DBBD2C2E7F0B5B7
:1048800003AF042911D30C1F0C2525400C2D12D089
:104890000026024640C223079B0F23460DD04660E8
:1048A000042D05D10839083005E00B4602460FE01B
:1048B00086600C390C3002460B460C2C08D30020C5
:1048C000106050609060D0601032103B032BF6D81F
:1048D000D01882421AD203241C40591E002C0BD03F
:1048E00000231370012C03D1521C032906D20DE0C2
:1048F0005370022C0BD1921C032907D30021D170D5
:10490000917051701170121D8242F7D1F0BD9370F9
:10491000D21C0329F2D2F9E7F0B503AF81B0042A23
:104920002DD3131F0C251D400C2D19D000920E46BF
:1049300004C9044604C01A07920F1A4610D0314623
:1049400072686260042D04D1009A083A0831083474
:1049500005E08A68A260009A0C3A0C310C342046BB
:104960000C2B0CD30B6803604B6843608B6883602F
:10497000CB68C36010311030103A032AF2D800F02F
:1049800002F801B0F0BDF0B503AF8FB0102A15D317
:104990000B924242032308931A4085180A90A842BA
:1049A0002AD2541E002A0A9806460B4616D00B78C7
:1049B0000370012A07D14B1C461C0FE003469C18CC
:1049C000A34241D362E04B784370022A02D18B1C90
:1049D000861C03E08B788370CB1CC61C032C0BD386
:1049E0001C7834705C7874709C78B470DC78F470E7
:1049F0001B1D361DAE42F3D10B98801A0B90089CFC
:104A0000A0432B188E1809962640079047D19D4247
:104A10000B9A099E11D23146086801C59D420CD2FD
:104A2000486801C59D4208D2886801C59D4204D2EC
:104A3000C86801C510319D42EED322400798311855
:104A40000A989C18A34221D203251540521E002D1E
:104A50000ED00E781E70012D04D1491C5B1C032A58
:104A600008D213E04E785E70022D11D1891C9B1C78
:104A7000032A0BD30A781A704A785A708A789A7087
:104A8000CA78DA70091D1B1DA342F3D10FB0F0BD27
:104A90008D789D70C91CDB1C032AEBD2F6E700243D
:104AA00006940E940EACA41905940424A41B04943B
:104AB000E407009606D0099C2478059E3470009E79
:104AC00001240694049CA40708D5099C0492069A24
:104AD000A45A059E069AB452049A009EF4000394C8
:104AE0000E9C06942C1D9C4236D2744209190591E5
:104AF000039D694218240C4002940A9904912946A6
:104B0000069CCC40069405998918019149680C4689
:104B1000029DAC40069D2C43049DAC50AD182C4624
:104B200008349C421CD2039CE140019CA46806947A
:104B30000195029DAC400C4301994C6004990831E9
:104B400004918D18291D059C0834059499420399F8
:104B5000D6D30598801801E00998801B059004E0E1
:104B60000198001D05902D1D06910DA800210490AF
:104B700001700CA80170012E0E460C4602910B9A92
:104B800009D0059C607926790DAC267004020220BC
:104B900002900CA804900998C0070AD00598001D3F
:104BA0000299405C049908700DA806780CA800785A
:104BB0000104059603984042049018260498064084
:104BC0000C4305990C43B44006990398C140214316
:104BD0002960089C099E30E7F0B503AF94B0034606
:104BE000401A90420C9300D398E08D189C18102A1C
:104BF00079D30A920320224602400D9252420B9230
:104C00002246099082430894A2422FD20D9E701E24
:104C10000790002E089B1C46284611D05C1E681E7B
:104C200003782370089B012E0AD09C1EA81E0378CF
:104C30002370089B022E03D0DC1EE81E037823702D
:104C400003460798032811D31B1F1646DA78601E07
:104C50000270A01E9A780270E01E5A7802703246E6
:104C6000241F187820701B1FA642EED30A980D9BB4
:104C7000C31A079309988343D41A16465A420692D8
:104C80000B9AAA18134603400D94059200D0DCE05D
:104C9000B442089E21D20B98011F6A5872507218B4
:104CA00094421AD2101F6B181C1F246804600D9CBC
:104CB000844212D2104608381C46083C246804601E
:104CC0000D9C844209D20C3A0C3B18681060103ECF
:104CD0000B983018103D8442DFD30998079A0240A0
:104CE000069805990D18A11AA14200D3AAE003263F
:104CF0001640501E0D90002E28D0601E6B1E1A7894
:104D00000270012E24D0A01EAB1E1A780270022E53
:104D10001ED0E01EEB1E1A78027019E0102A69D32B
:104D20000A92584203220D9210401D18AB423DD208
:104D3000421E00280C9E34460B4629D00B920A785E
:104D40003270012818D14B1C741C20E020462B46E1
:104D50000D9A032A76D31A1FD378441E2370831E1C
:104D600094781C70C31E54781C70001F1378037055
:104D7000121F8142F0D365E04A787270022802D196
:104D80008B1CB41C03E08A78B270CB1CF41C0B9A09
:104D9000032A0BD31A7822705A7862709A78A2701C
:104DA000DA78E2701B1D241DAC42F3D10A9A121A64
:104DB00013460D9EB3430993EB180C180B94344023
:104DC00060D19D42099E0B9C11D22046016802C50C
:104DD0009D420CD2416802C59D4208D2816802C53D
:104DE0009D4204D2C16802C510309D42EED30D9899
:104DF0000240A1199818834224D203241440521E61
:104E0000002C11D00D781D70012C02D1491C5B1CA7
:104E10000AE04D785D70022C02D1891C9B1C03E0D6
:104E20008C789C70C91CDB1C032A0BD30A781A707F
:104E30004A785A708A789A70CA78DA70091D1B1DF0
:104E40008342F3D10C9814B0F0BD029612A81E460E
:104E500000230490037011A80370951B0096012E87
:104E60001E46039500D1A3E02B7812A8019303708E
:104E70006E78D00711AA0492002800D096E0002393
:104E8000019A9DE00A9200221646109210AA121969
:104E900008920422121B0792D20704D00B9A1278B0
:104EA000089E32700126079A9207039404D50B9A44
:104EB000925B089CA253039CE2000692109A08920F
:104EC0002A1D9A422FD262428918079106994942B7
:104ED00018220A4005920C99069A089CD44008941E
:104EE000079A141862681546059EB540089E35431A
:104EF0000D500D18049508359D4219D2069DEA40C3
:104F0000A5680895059EB5401543049A556008317B
:104F10000D182C1D079A083207929C42DCD3079982
:104F20000818079009E00B98001B0790099E06E0FF
:104F3000201D07900498051D0892099E039C0FA947
:104F40000020059108700EA90870012C0446014646
:104F5000049009D0079A517914790FAA14700902A4
:104F6000022204920EAA059209940B9AD2070BD042
:104F70000798001D049A805C059A10700FA80078AD
:104F800009900EA800780004069A5242079218244D
:104F9000079A1440014309980143A1400898069AD2
:104FA000D040084328600A9A0B9C20E70223039D07
:104FB000E85C049A107012A8027811A80078030423
:104FC0000098C000049035021D431543261D029A27
:104FD000964254D20A98009A801A091804984042BE
:104FE000182202400A920B98001F01900846089B65
:104FF00034460A998D400895019E82590146104613
:10500000049DE840089D28433546985108939B1914
:105010009C42049E35D20A98824002914D19281F65
:1050200001680846F04010431A1F1060944231D2C4
:105030000A9881402846083802681046F040084324
:105040001946083908608C422DD20A9882400C3DDE
:105050002D682846F04010430C3B1860089B103B1D
:105060000B981A180298103803991039039194423A
:10507000BFD301460B98081803900A951BE00A95C8
:105080001AE00A920398001F03900B9808994018A1
:10509000021F10E00398083803900B98089A8218B2
:1050A000083A0A9107E00A9203980C3803900B988B
:1050B000089942180C3A0D9C0023139313A8009EE4
:1050C000811903988019051F0420861BF00702D060
:1050D0002878087001230292B00701D5E85AC85217
:1050E00013980499C840494218220A400A999140ED
:1050F00001430298001F0160EFE5D0B502AF9306AF
:105100000BD4002A08D01F2354421A40D0401C4020
:105110000B46A3401843D140D0BD1F200240D140D0
:10512000002208461146D0BDF0B503AF042911D3C3
:105130000C1F0C2525400C2D12D00026024640C223
:1051400023079B0F23460DD04660042D05D1083957
:10515000083005E00B4602460FE086600C390C3043
:1051600002460B460C2C08D3002010605060906063
:10517000D0601032103B032BF6D8D01882421AD2DE
:1051800003241C40591E002C0BD000231370012C4B
:1051900003D1521C032906D20DE05370022C0BD10F
:1051A000921C032907D30021D170917051701170A6
:1051B000121D8242F7D1F0BD9370D21C0329F2D2A6
:1051C000F9E780B500AFFFF707FD80BD80B500AF00
:1051D000FFF702FD80BDF0B503AF81B0042A2DD3E7
:1051E000131F0C251D400C2D19D000920E4604C92A
:1051F000044604C01A07920F1A4610D0314672684E
:105200006260042D04D1009A083A0831083405E0A0
:105210008A68A260009A0C3A0C310C3420460C2BA0
:105220000CD30B6803604B6843608B688360CB686A
:10523000C36010311030103A032AF2D8FFF7A3FBF5
:1052400001B0F0BD80B500AF00F0E7F980BDF0B56A
:1052500003AF89B01D4616460346FC680594B9683D
:1052600000297DD0002C7BD1002D00D111E18D4291
:1052700000D31BE11C4608960B0C012000269D4222
:10528000029000D820E130460A4600D81FE1130AF8
:105290009D4200D920E11A460491029900D91FE1EC
:1052A00013099D4200D920E11A460194029B00D9BE
:1052B0001FE19408A54200D920E12246029C00D9B2
:1052C0001FE152089542029A00D9324603956400C4
:1052D0009B000001C9000818C01800191F2480187D
:1052E000254601D020210D1A049805992A4600F080
:1052F00066FA2C40029AA24007920AE008930395AE
:105300000646069880088A078018079A920807922E
:105310008908089A0690131A039C25468D4108D4E3
:10532000079806430298854200D2F1E030462C46A9
:1053300002E0304613462546069A5608CA07B218B8
:105340004E089A1A0892B441D8D4079A52080646D1
:105350001643029803948442D3D20499089CD9E05E
:10536000304600260890401A2846059A904171D38D
:10537000002D6FD0019304912A0C012000262146B4
:10538000944207906AD930462B4669D91A0A91424D
:105390006AD81346079A69D81C09A1426AD82346DD
:1053A000079C69D806969E08B1426AD83346079E84
:1053B00069D85B089942079B00D9069B7600A40038
:1053C0000001D200101800198019C01881401F2256
:1053D0004240049C6308D3400B43844007998140BA
:1053E000079106990BE00E4608940546069880083A
:1053F0009A0784180798800807909B083146089AF6
:105400000694141B2846984108D4079A1143049D1A
:10541000651B0546059A954102D217E014462846B9
:10542000069A5508DE07AD195E08621B0546B541B0
:10543000D9D4079846080E430498101A28460599AF
:1054400088413146089214462846CFD20022019B5B
:105450000E4669E03246089C284665E02B4695D802
:1054600013461A0A914294D9079A95D932461C09D3
:10547000A14294D9079C95D9344606969E08B1421C
:1054800094D9079E95D9069E5B089942079B94D8AC
:1054900094E730460D461C46FFF7D4FE23463146BE
:1054A000064645434C1B002210463DE042D13046A3
:1054B00029461C46FFF7C6FE2346314606464543AD
:1054C0004C1B002001222FE00A4600D9DFE61A46D5
:1054D000130A9D4200D8DEE60491029900D8DFE667
:1054E000314613099D4200D8DEE60194029B00D8A4
:1054F000DFE633469408A54200D8DEE6029C00D8D9
:10550000DFE6344652089542029A00D9DDE6DDE630
:105510001C46049920460D46FFF794FE064345437A
:10552000641B00221046019B1E605A609C60D8607C
:1055300009B0F0BD019328460491FFF783FE04995A
:10554000034608465843281A0A0C03931CD1340C0E
:105550000004001908960E46FFF774FE0546304613
:105560006843201A0004089989B24418204631463D
:10557000FFF768FE290401434643A41B0E46280C8E
:10558000039A02430020CEE7721A0246059B9A4115
:1055900002D2344600263DE001254A08E3079A1866
:1055A000CC070795E90708910021069108E01D4600
:1055B000A10894070C1908998908089192082E46A9
:1055C000351B33460646964108D406980899084389
:1055D00006900798864213D32B4630466508D607B7
:1055E000AD1951085D1B06468E41E0D4089840086D
:1055F0000699014306910798864201D33046D7E7C2
:105600002846049C2146FFF71DFE069E06434443A0
:105610002C1B0020019B039A86E7F0B503AF83B0F3
:105620000246884203D20020114603B0F0BD130C9D
:1056300001250024994228462ED8029016462FD9DB
:10564000300A814230D9284631D801903009814250
:1056500032D92B4633D8B008814234D9284635D8C0
:105660007608B1422E4600D92646400000909B00A5
:10567000029804010198C0000019C018009BC018CE
:1056800083199D400C469C40161B8E4224D2324604
:105690002846114603B0F0BD204602901646CFD8EA
:1056A0001E46300A8142CED806462846CDD920462D
:1056B000019030098142CCD806462B46CBD92346EF
:1056C000B0088142CAD806462846C9D9204676087D
:1056D000B1422E46C8D8C8E7002C03D42946284634
:1056E00032461AE05B1E1F201840012282400292BF
:1056F000640800200190321B002A06DB029807DBB9
:1057000028438A4202998FD307E032460298F7DA9B
:10571000019828438A42029986D3491E002B0BD058
:1057200003261E400AD055002A1B521C00D41546E1
:10573000012E06D15A1E13E0154613E015461A46EF
:105740000EE06D002A1B521C00D41546022E01D11A
:105750009A1E05E06D002A1B521C00D41546DA1E65
:10576000042B0AD21F2213402A46DA40294008435C
:10577000114603B0F0BD121FF4D06D002E1B761C35
:105780000CD56D002E1B761C0DD56D002E1B761CC6
:105790000ED56D002E1B761CEDD40EE035466D0047
:1057A0002E1B761CF1D435466D002E1B761CF0D4D2
:1057B00035466D002E1B761CDDD43546DBE7D0B5B3
:1057C00002AF93060BD4002A08D01F2354421A407C
:1057D00091401C400346E34019439040D0BD1F2137
:1057E0000A40014691400020D0BD80B500AFFFF7D0
:1057F000CAF880BD10B584B002AC009400F004F883
:10580000029A039B04B010BDD0B502AF86B0044627
:105810000092019302A822460B46FFF718FD039958
:105820000298BA68002A03D0059B049C1460536058
:0C58300006B0D0BD80B500AFFEE7D4D4B8
:10583C002F55736572732F72626F796E746F6E2F42
:10584C002E636172676F2F72656769737472792F3B
:10585C007372632F696E6465782E637261746573FD
:10586C002E696F2D3139343963663863366235628F
:10587C00353537662F61727261797665632D302EFE
:10588C00372E362F7372632F61727261797665636E
:10589C002E7273003C580010630000007B04000063
:1058AC000F0000006053746174696343656C6C6035
:1058BC0020697320616C72656164792066756C6C0B
:1058CC002C2069742063616E277420626520696ED8
:1058DC00697469616C697A65642074776963652E93
:1058EC00B05800103C0000002F55736572732F7276
:1058FC00626F796E746F6E2F2E636172676F2F7289
:10590C00656769737472792F7372632F696E64653E
:10591C00782E6372617465732E696F2D3139343949
:10592C006366386336623562353537662F7374615A
:10593C007469635F63656C6C2D322E312E312F735D
:10594C0072632F6C69622E7273000000F4580010A1
:10595C0061000000540000000D0000002F5573651D
:10596C0072732F72626F796E746F6E2F2E63617209
:10597C00676F2F72656769737472792F7372632FF7
:10598C00696E6465782E6372617465732E696F2D10
:10599C00313934396366386336623562353537668A
:1059AC002F726D6B2D302E372E382F7372632F7331
:1059BC00706C69742F72702F756172742E72730013
:1059CC006859001063000000DB0100003600000085
:1059DC006859001063000000E1010000360000006F
:1059EC002F55736572732F72626F796E746F6E2F91
:1059FC002E636172676F2F72656769737472792F8A
:105A0C007372632F696E6465782E6372617465734B
:105A1C002E696F2D313934396366386336623562DD
:105A2C00353537662F726D6B2D302E372E382F7320
:105A3C0072632F73706C69742F706572697068650E
:105A4C0072616C2E72730000EC590010660000003D
:105A5C004500000028000000685900106300000099
:105A6C008601000048000000685900106300000027
:105A7C00810100000D000000685900106300000057
:105A8C008101000013000000685900106300000041
:105A9C002B01000026000000685900106300000074
:105AAC003201000032000000685900106300000051
:105ABC00210100002600000068590010630000005E
:105ACC00220100003900000068590010630000003A
