:020000041000EA
:1000000000B5324B212058609868022188439860DF
:10001000D860186158612E4B002199600221596106
:100020000121F02299502B49196001219960352056
:1000300000F044F80222904214D00621196600F024
:1000400034F8196E01211966002018661A6600F04E
:100050002CF8196E196E196E052000F02FF8012189
:100060000842F9D1002199601B49196000215960AB
:100070001A491B48016001219960EB211966A021F2
:10008000196600F012F800219960164914480160C1
:100090000121996001BC002800D000471248134993
:1000A000086003C880F30888084703B5996A0420EC
:1000B0000142FBD001200142F8D103BD02B5186610
:1000C0001866FFF7F2FF186E186E02BD00000240BE
:1000D000000000180000070000035F00212200005C
:1000E000F4000018222000A00001001008ED00E03C
:1000F00000000000000000000000000074B24E7A12
:1001000000000420C101001031510110ADCC0110DC
:1001100000000000000000000000000000000000DF
:10012000000000000000000000000000315101103C
:100130000000000000000000315101103151011099
:100140002D5901103151011031510110315101105F
:10015000315101102D450110315101109943011009
:10016000315101103151011031510110095A011062
:1001700031510110955901103151011031510110C7
:100180005100002031510110315101103151011045
:100190003151011031510110315101103151011013
:1001A0003151011031510110315101103151011003
:1001B00031510110315101103151011031510110F3
:1001C00015F098FB084809490022814201D004C07B
:1001D000FBE707480749084A814202D008CA08C01D
:1001E000FAE714F095F900DE78010020643300206E
:1001F0000000002078010020F8100210F0B503AFD5
:1002000085B00A46044602AD2846214614F0FCF9A2
:10021000287800280FD0012816D12569A068049EEF
:10022000039A1A4B294616F03BF90670E068A8427B
:1002300026D0002105E002A9E068226990421FD083
:1002400049780170401C18E002A8407A01902569A5
:10025000A068049E039A0C4B294616F021F90670FB
:10026000E1680220A9420CD0019A0A704A1CE2609F
:10027000AA4206D000204870881CE060102000E0F0
:10028000022005B0F0BDC046F8EE0110E8EE011006
:10029000F8B504AF0E46054600210AF02FFDC0B2A6
:1002A0000224102835D131782846FFF7A7FFC1B2C4
:1002B00010292DD17078012817D1012128460AF084
:1002C0001DFDC0B2102824D1F1782846FFF796FF13
:1002D0000446C0B210281CD1B17828460AF00EFDA1
:1002E000C4B2102C15D0022413E0002128460AF0D5
:1002F00005FDC0B210280CD1B1782846FFF77EFF6B
:100300000446C0B2102804D1F1782846FFF776FFE2
:1003100004462046F8BDB0B502AF144605460AF0C3
:10032000EDFCC0B2102804D128462146FFF766FF35
:10033000B0BD0220B0BD80B500AF0169002911D069
:100340004369491E01618268511C8160C168591866
:10035000491CC16003684168184603F045FE014628
:10036000012080BD002080BDFEB506AF0C462849A7
:100370000968C9053DD10290206800283ED101924C
:100380004D20800026180021C843254601C5307A3B
:10039000012804D120460C3015F0AAFB317A05CE95
:1003A000083E904201D1C9070FD021461431431CA9
:1003B00000220093102B134600D0009B3360327252
:1003C000122242438E5C082E07D1019806C82846A7
:1003D00015F073FB0826029D06E08918029D681C33
:1003E000491C11221CF025FC2E702068401C206046
:1003F000FEBD084814F032FF14F03DFF064814F02B
:1004000022FF09F0CDFD14F0FDFF14F034FFC046CB
:1004100004ED00E02700000017000000FEB506AF65
:10042000044626480068C00539D1206800283BD121
:1004300002910021C843224601C201925C20205C47
:1004400025465C35012804D120460C3015F050FBC0
:100450002978606DA26D0223904202D1C9071E4621
:100460000FD000932146143100222A70431C102B18
:1004700000D01A46626580000E58F0B20228009B38
:1004800006D1029806C801981D4615F016FB2846AD
:100490002168491C2160FF218E433018FEBD0848A9
:1004A00014F0DCFE14F0E7FE064814F0CCFE09F070
:1004B00077FD14F0A7FF14F0DEFEC04604ED00E067
:1004C0002700000017000000B0B502AF0446C06866
:1004D000002809D025460C3528460AF07BFC002868
:1004E00000D0B0BD002028602068012804D16068D9
:1004F00000216160A168B0BD0020B0BDF8B504AFB7
:1005000004462020205C002804D0032867D1E56938
:10051000286811E00DCC0C3C25460C350DC58288B1
:10052000934202D9002001264DE0827925461835F4
:100530007F201040A061E5610F284CD8C0002B4AF5
:1005400010180B684A68194615F08CFA28681028AC
:100550003CD2C00028494018802541592748401CFA
:10056000014202D0032630462DE0009123460C3391
:100570000DCB4188008800F01FFAA069102825D211
:1005800061691E4A114001262B467503009A954366
:100590006918F2038918C000174A10180093C15057
:1005A0000C201BF069FAA06910280FD2C000124974
:1005B00008186169114A11400D432121890229431C
:1005C000009A8150022020342670F8BD08481D2171
:1005D000084A14F0A7F91021034A14F03FF8014823
:1005E00014F094FD18CD011028CD0110EC28002046
:1005F00054EC01101CED011000001050FF0300002E
:10060000DCB504AF14460A46014600930020234699
:100610001AF0A6FCDCBDD4D4F0B503AF85B00C460F
:1006200006462020085C002804D0032873D1E56921
:1006300028680BE00BCC0C3C25460C350BC58179AA
:1006400025461835E5617F200840A0610F285ED857
:10065000C0003449081806CA15F004FA28681028A2
:1006600050D2C0003249401884214558314A501CAC
:10067000054203D00220307003233FE0284610409B
:1006800062690123049282421A4633D30391019393
:100690000296E6682169284B0090049AFFF7B0FFA4
:1006A00002460B467188308800F06AF9A06910286C
:1006B00028D201214E03AE43E16889881D4A1140CA
:1006C0007118C0001A4A1018039D41510C201BF0EC
:1006D000D3F9A069102815D2C00015490818E1689F
:1006E0008988144A11400E439119491C4151002236
:1006F00000AE49CE706000217170327020342370DA
:1007000005B0F0BD08481D21084A14F00BF910216E
:10071000034A13F0A3FF014814F0F8FC38CD011090
:1007200058CD01106C29002054EC01102CED011063
:1007300000001050FF03000048CD011080B500AF4D
:10074000C0B20C2804D2052109078001401880BDE1
:1007500002481D21024A14F0E5F8C046C0EB011022
:1007600044EC0110F8B504AF14F04EFF104C217AA0
:100770004D1E2572C0B214F071FF280600D0F8BDDE
:1007800014F042FF216A0091656AC0B214F066FF5E
:100790000026084C1E2EF2D00098294632461BF047
:1007A00052FEC00701D01F202060761C0834F1E7FC
:1007B0004832002004400140D0B502AF0C4614F08E
:1007C00061FF0168302291432207120E0A43026042
:1007D000D0BDD4D4F0B503AF87B015460E46029015
:1007E0004820105C002821D028464830437804ACCB
:1007F000204631462A4600F03BF82078022830D0C7
:1008000004A9CA7803AB9A704A78897809028918D2
:100810001980059C069D029E3070701C03A903225E
:100820001CF007FA7460B56007B0F0BD00230193B7
:100830001F2B0BD804AC204631462A4600F018F88E
:1008400020780228DCD10598431CF1E7074814F012
:10085000FAFC0198214609F0B3FB14F0D3FD14F023
:100860000AFD059C01200190F0E7C046120000003F
:10087000F0B503AF89B0029010464A3001908078FD
:1008800000284FD10091086807900393DDB2FF2044
:10089000410150684000069000231E4605920491D5
:1008A0000698984224D00893D01802890846203030
:1008B000824206D2039880180A401F230340134344
:1008C00000E013461F222A40012090402946354669
:1008D0003446079E354305421ED19200154D5351B3
:1008E0000443089B9B1C4D1C059A26460499D7E798
:1008F000029D039BAB72079C344300980460106810
:1009000041C5019C6078C0181F210840687020789C
:10091000C0180840287003E00220029908704A605D
:1009200009B0F0BD024814F099FC14F0A4FCC046D4
:100930001300000048002050F8B504AF0D788C7803
:10094000661BF6B2B34213D1C57384714C7804743C
:100950000C894482002B04D0126813787F221A403D
:1009600000E00022827201228276897AC176F8BD87
:10097000024814F073FC14F07EFCC0460D00000029
:10098000DCB504AF89B28B420AD80849009180B225
:10099000074944181046194622461AF0D9FBDCBD17
:1009A000044814F05BFC14F066FCC04668CD0110EE
:1009B000000010500B000000E0B502AF89B28B427E
:1009C00008D80749009180B20649401819461AF024
:1009D000BFFB8CBD044814F041FC14F04CFCC04635
:1009E00078CD0110000010500C00000080B500AF61
:1009F00014F048FE016844220A4308218A43026039
:100A000080BDD4D4FEB506AF02900126F0040025C7
:100A1000BC68844208D8009301912346A0000121BC
:100A20004C05201A824203D92946304603B0F0BD56
:100A30009007FAD11149019C0868800701D44869E0
:100A4000FAE7012000071018C8600B610298C00780
:100A500010D01D462046FFF771FE0A49016000993B
:100A6000416085602107490C074A8918C16000264A
:100A70002146DAE7024814F039FAC04608000014AB
:100A80005CCE0110000040502980120080B500AFFC
:100A9000824203D30B18111A184680BD11461A461C
:100AA00013F0FBFE80B500AF824203D30B18111A7E
:100AB000184680BD11461A4613F0EFFEF0B503AF9D
:100AC00018CA083AA3420FD00C290D4600D30C25B2
:100AD0004E1BED005D1960330C2913600560436007
:100AE0003146EFD80120F0BD0020F0BDF0B503AFD6
:100AF000FFB09CB02122D30056AAD21804920468F9
:100B0000426883680793C368039303690693436944
:100B100005930290806911900B68099148680A90CA
:100B20002032089201941E460A9883426FD03546BF
:100B30000835099805602068401E2060079C2168E0
:100B40008A1C0898404B08F095FB09F0D1FB014640
:100B500012A81AF03FFD2068801C20601399B18014
:100B6000129A3280080CF080100C0E967080069855
:100B7000066805980468664351D00F9210910B9552
:100B8000002C4FD003980088119908180D90314619
:100B90001BF057FD56AA0C92507005211170049954
:100BA0002A4D0D6046430D98861B304621461BF0AA
:100BB00048FD0C99C8704443301B887010985890B9
:100BC0000F98579022480068C0052ED12868002849
:100BD0000E9E2FD10023D84328602946083114AC3B
:100BE00056AA204600F070FE2868401C2860207835
:100BF0000B2802D0194814F031FB1199491C0298B6
:100C000011918161019C206800280B9B8BD10A986F
:100C1000301A411E8841FE1F053EB546F0BD114801
:100C200014F0D4F80E4814F0D1F80A4814F016FB6A
:100C300014F021FB084814F006FB09F0B1F914F098
:100C4000E1FB14F018FBC0466CDD0110502C0020B5
:100C500004ED00E027000000170000004300000042
:100C60003C0C02102C0C0210FEB506AF144602918B
:100C700000900193029E03CB083B884217D00146A7
:100C8000083119601AF0AEF9054631688A1C0098DF
:100C9000094B08F002FB2A4609F0AEFA019B3068C6
:100CA000801C3060641E601CE5D3002000E0012041
:100CB000214603B0F0BDC0465CDD0110FEB506AFB5
:100CC0000D4606461C6801935868029002988442BB
:100CD0000ED02C6060346C600198046003CE2B460B
:100CE000083EFFF7C1FF0A46C007EFD1002000E031
:100CF0000120114603B0F0BDFEB506AF0D460090D1
:100D000014680192506802902646029884420BD0E3
:100D1000344660342E606C60019804600098294667
:100D2000FFF7E4FE0028EFD00298301A411E8841F8
:100D3000FEBDDCB504AF14460A460093411C0020FA
:100D400023461AF00DF9DCBDF0B503AF85B00446BB
:100D5000407A0394784400794000874402B1BA4352
:100D60002900606820600146FE31227A7A441279B7
:100D700052009744026D56675000022008712068A7
:100D8000FE21002545542068FF2145540431206888
:100D9000455424689C2001902058C6005C34002EE5
:100DA00067D003CC0969083C8847083E0834F6E759
:100DB000207CC00700D086E02068012121748121B9
:100DC00049000022425424689C202058C5005C340D
:100DD000002D70D003CCCA680021083C9047083D24
:100DE0000834F5E7207CC00770D120680125257400
:100DF000812149000222425424689C202058C600C8
:100E00005C34002E57D003CCCA682946083C904772
:100E1000083E0834F5E700210246A032E260216175
:100E2000CBE70020087024689C202058C5005C3463
:100E3000002D40D003CCCA690021083C9047083DF2
:100E40000834F5E700210246A032E2602161CDE7D7
:100E500001250D7024689C202058C6005C34002EAB
:100E600029D003CCCA692946083C9047083E08347B
:100E7000F5E703980168886D483140000818029032
:100E80000298814217D000200491087003980468EA
:100E900001982058C6005C34002E08D003CC4B6A61
:100EA00000222946083C9847083E0834F4E76D1CA8
:100EB0000499891CE4E701200399487205B0F0BD4C
:100EC000064814F023F9034814F020F9024814F0FE
:100ED0001DF9FEDE5CED01104CED0110F8CF0110A4
:100EE00080B500AF002080BD80B500AF002080BD80
:100EF00080B500AF80BDD4D4F0B503AF87B0044651
:100F000006463436407C0D467844007940008744DC
:100F1000022934415700E168A16060680A2824D2A0
:100F2000226803928B880928029503D1002020743F
:100F300009220BE0002B1DD01946019000931BF0F5
:100F40009DFE009B019A48424841207404A80190EC
:100F5000039908F0F3F920461430019D0ECD0EC020
:100F6000029D0BE01E4814F0D1F81E4814F076F9EB
:100F700014F081F91C4814F0B7F8FEDE2046143056
:100F800009F028FF002811D000223273A2682262E3
:100F90006062A162204620302946FFF7AFFAC0B256
:100FA0000228EBD00328014615D115E0207C01284A
:100FB00010D1002001213070A2686261A161E0615E
:100FC000204614302946FFF799FAC0B2032802D10F
:100FD000042101E002200121617407B0F0BDC04688
:100FE00038D201101D00000018D20110F0B503AF77
:100FF0009DB015460E4604468720085C1968089186
:101000001193596810913246E8320128149219D18F
:10101000106818AA002151711171D17003239370C7
:10102000517010700B210623304614F039FF71699E
:10103000B069401F884200D34EE131690A5C521CFE
:101040000A54149A07951368082B00D32EE1580010
:101050003018D821002545521168491C1160994269
:1010600000D82DE1D921425C521C4254306801283D
:1010700000D029E1069471697068884200D328E1A4
:101080005B21890071181291B9680A9131690A5C73
:10109000521C0A540124B069001DB460F06018AA03
:1010A00095715571157103200F90D0709570557022
:1010B0000593137004210723139330460D9114F008
:1010C000EFFE1098010A18AA049191715071222024
:1010D0001071D47095700C945470102010702121F0
:1010E0003046139B14F0DCFE0B963246EF323F2065
:1010F000C44320463F3011998B7C0E93098A13918B
:101100002346002B00D1C4E0401CD11840254E5D81
:101110001B1D1499C91840310028F2D0F607F0D1F0
:10112000139A402A00D9B4E0139A3F32C0231340E7
:10113000129A128814930992D3189EB20C9A120331
:10114000964200D9A5E0129E3380139E0E80FF23A5
:1011500004334B80411E0F2900D390E003930C927F
:10116000C900664A89180B239A060292099EB31891
:101170008B6015A90F9B0B720E9BCB71139A8A8003
:10118000149B4B800E80802210438871091D0B9E9A
:10119000304614F0D7FE0A9800283AD02520C00027
:1011A00030183F34002D79D0641C2D1F011DC279E9
:1011B000002C0846F6D0D0070846F3D112980088D4
:1011C000149A821893B20C9DAB4267D8129B1A8076
:1011D000139A0A80039B4B80611E0F2954D2029DF3
:1011E0000543C900454B5918CD6018A90F9D0D72D4
:1011F0000E9BCB718C718A80149A4A800880091DDD
:10120000304614F09FFE19981390189814900D957D
:10121000FFE73246503207CA3346483314F07AFFAC
:10122000079904984877109D0D77364888613648AD
:10123000C882092048750598087530460E46203644
:10124000119A9368D268089C70C10B604A602F4A5B
:101250000C3900F085F8139A100C06990882CA819F
:10126000149A100C88814A810D98887415A80C4630
:101270000CC80CC44E61008820801DB0F0BD1D4814
:101280001D211D4A13F04EFB1A481D211C4A13F064
:1012900049FB224800902248182103E01C48009096
:1012A0001C4819211CAA1C4B13F08CFE0D4813F08E
:1012B000CAFF082013F0B2FF14F0A4F813F0DBFF0C
:1012C000094A184613F0CAF9084813F0C7FF13F08B
:1012D000D2FF074A13F0C2F9014A13F0BFF9C04622
:1012E00024D301101B00000034D3011020000000A3
:1012F000B400021071EC0110FCEC01100000105061
:101300000CED0110010001222110000078D2011023
:1013100088D301106CD3011090EA01105CD3011046
:1013200044D3011080B500AF80BD80B500AF00216F
:10133000016080BD80B500AF002080BD80B500AFEA
:10134000002080BD80B500AF022080BD80B500AF19
:1013500080BD80B500AF80BD80B500AF80BDD4D466
:10136000D0B502AFD423C358082B0AD2DB00C31870
:10137000D4309424195194335A600168491C016097
:10138000D0BD054813F05FFF082013F047FF14F0AD
:1013900039F813F070FFC0461A000000B0B502AF74
:1013A00086B00D460446243000F0E4FBC00707D1A8
:1013B0002422204629461BF03CFC204606B0B0BD46
:1013C0000020049001210191044900910390042020
:1013D00002906846024913F05FF9C046D4D3011069
:1013E00040D40110B0B502AF86B00D46044680303F
:1013F00000F0C0FBC00707D18022204629461BF021
:1014000018FC204606B0B0BD0020049001210191D7
:10141000044900910390042002906846024913F0A9
:101420003BF9C046D4D3011040D40110D0B502AF6F
:1014300086B0044600F09EFBC00702D1601C06B0D7
:10144000D0BD002004900121019104490091039036
:10145000042002906846024913F01EF9D4D301100B
:1014600040D40110B0B502AF86B00D46044610302E
:1014700000F080FBC00707D11022204629461BF050
:10148000D8FB204606B0B0BD002004900121019198
:10149000044900910390042002906846024913F029
:1014A000FBF8C046D4D3011040D40110B0B502AF50
:1014B00086B00D460446163000F05CFBC00707D12D
:1014C0001622204629461BF0B4FB204606B0B0BDCC
:1014D000002004900121019104490091039004200F
:1014E00002906846024913F0D7F8C046D4D30110E1
:1014F00040D40110F0B503AFCBB00446007BC00769
:1015000056D16568A1680020A9424DD30122530538
:10151000994249D8084628430005104644D10D2079
:1015200000070068002801D002203DE0481B02901F
:1015300014F06AF8C0B2039000200C280BD00521EB
:10154000090782015118401C0A68520FF5D1CA6878
:10155000D201F2D5F8E7184801680029FCD101262C
:1015600031020191009605A804901AF083FF14201F
:10157000008818210A8811499047034631070498CA
:10158000019A984745A80190002600993246049B8D
:1015900014F08EF8284602993246019B1BF080FB1E
:1015A000039814F05BF80420012121734BB0F0BDC7
:1015B000034813F0ABFDC04618000014433400008C
:1015C000F4D40110F0B503AFD1B00546007CC007DC
:1015D00000D062E1AB680122510500208B4200D9A6
:1015E00020E1EE68C91A8E4200D91BE13146FF3175
:1015F000FF20069081430F91891B8B421C4600D32C
:101600000C460D916968089111020D2000070E9497
:10161000002C09920B9010910793059634D011AECF
:10162000FF2230460C460C921AF080FF0D98211ACA
:101630000E9C0A199A4B30460E4607F043FE994A13
:101640000092089A234619F083FD0B980068002841
:1016500000D0E5E004950598801B0D9009980406DC
:1016600045070520060713F0CFFFC0B20A900020FF
:101670000C2810D081017118401C0A68AA42F7D2C8
:10168000CA682242F4D0F8E788481840FF2B1C466D
:101690000F9618D89DE0844801680029FCD111A953
:1016A0000D98109A14F044F80A9813F0D7FF079B8E
:1016B0000E995C1A20460C9A90430843210A049D17
:1016C000099A00D185E00294049555076C1E08998B
:1016D000A14209D998420B9C00D9D6E02468002C7D
:1016E0004DD00220049D9DE09842109B069C00D99D
:1016F000CFE00E9E89190D910390801BA0430E90A0
:101700001606214605200407C8430A900E980028B3
:101710005BD011A80D991A461BF08BFA0B98006844
:10172000002829D10E980A9940180E900D9810990A
:1017300040180D9013F068FFC0B20C9000205A4B77
:101740000C2809D081016118401C0A68AA42F7D20E
:10175000CA683242F4D0F8E718680028FCD111A911
:101760000F98109A13F0E4FF0C9813F077FF109B7A
:101770000F98C0180F90C9E70220049D51E00E9BFE
:10178000C9180D910390C01A0E9014060520060783
:1017900013F03AFFC0B20C9000200C2809D0810150
:1017A0007118401C0A68AA42F7D2CA682242F4D0D3
:1017B000F8E73D4801680029FCD10F980D990E9A71
:1017C00013F0B6FF0C9813F049FF049D099A039893
:1017D000029C0390E4B20420002C23D00E9011A8A8
:1017E0000F90109E3146069A1AF0A0FE314B20460B
:1017F0000F993246FEF704FF04460E462E4B03981F
:101800000899079AFFF742F902460B462B480090C9
:101810002046314619F09CFC0B980068002804D043
:101820000220099A2A7451B0F0BD049505980799D1
:101830000818FF3006998843C94340180F9009984B
:10184000040646070520050713F0DEFEC0B20D9022
:1018500000200C2809D081016918401C0A68B24296
:10186000F7D2CA682242F4D0F8E70F48016800298D
:10187000FCD111A90F98109A13F05AFF0D9813F08C
:10188000EDFE049D099A0E98CCE70D4A194613F017
:1018900027F8074A079913F023F80A4813F036FC93
:1018A000ECCD0110FCCD01101800001400FF3F002A
:1018B0000CCE01102CCE01103CCE01104CCE0110EC
:1018C0001CCE011004D50110F8B504AF0D46044636
:1018D000432000010E18307A002813D016780B2E02
:1018E00025D0511C002B07D01868009106C8083578
:1018F000284614F0E2F80099601CFF2208321BF021
:1019000098F918E02120C300706858432818103057
:1019100011461A461AF05EFE7068401C042800D179
:10192000002070603168814201D101203072284668
:1019300014F0DEF80B262670F8BDB0B502AF0446F1
:1019400085680020A060002D06D021686068496885
:1019500088476D1E0834F6E7B0BDB0B502AF194632
:10196000154604467D20C200002328461BF03CF9A2
:10197000024620460B4614F015F9B0BD80B500AF05
:101980001F22024001209040034A002901D010602C
:1019900080BD506080BDC046140000D0F0B503AFDC
:1019A00087B0049104462920C100605C2246303291
:1019B00000280592039111D0032846D1204610300B
:1019C0000290107878440079400087440241442115
:1019D0001F002546103529CDE2690BE0002010706C
:1019E00029CC22680C3C2146103129C1E2612146F4
:1019F00010310291214620312DC1A90701D00125C6
:101A00002AE0990706D00022A26330E015794CE065
:101A100015790DE041780078AD080095FEF7F2FFEA
:101A20000D46059A917101210140517166D11571E0
:101A3000284604990DF05EFD002801D0032013E034
:101A40002046343006F0E2FF56E0374813F05EFBE4
:101A5000344813F05BFBFEDE012005990870029804
:101A600007F093F8012050E0059908704BE095428B
:101A700042D9234648332364A81A0121FF2800D9FC
:101A80000802E06385086564206A666A0691417809
:101A900000780095B218FEF7B5FF0D46059A9171D2
:101AA00006990840507129D11571284604990DF006
:101AB00021FD00282FD12046343006F0A7FF224612
:101AC000383207CA0692666CA26AE36A174D00951F
:101AD000091819F045FA0A46B100E36B8B421CD88D
:101AE000134900911146069A19F032FBA06BE16B85
:101AF0004218A263E56ABAE70425ADE70120107039
:101B0000E8B20528ABD105250320039961180870B8
:101B1000284607B0F0BD0420A6E7064A184612F092
:101B2000DFFEC0466CCE011034D601107CCE011011
:101B30009CCE01108CCE011080B500AF06C80123E9
:101B40004B400838134304D1002102220260416057
:101B5000FEDE024813F082FB13F08DFB090000004B
:101B600080B500AF024813F079FB13F084FBC04648
:101B700009000000B0B502AF054613F045FDC0B244
:101B80002C78002C01D10121297013F067FD601E13
:101B900084412046B0BDD4D4FEB506AF06490091BD
:101BA000019000210491694603910291203002A91D
:101BB0000EF0A4F806B080BD1CFC011080B500AF8B
:101BC000024A00238354024A815080BDFF0E000068
:101BD000680E000080B500AF044600252848854205
:101BE00044D02848461913F00FFD32463669002EBE
:101BF00001D0314600E003211161C0B213F02EFD87
:101C00001F482D18002EEAD11E4840191E494518BC
:101C10001E48E861284620302146FFF7CFFFAC611F
:101C200013F0F2FC216825606961C0B2002900D17F
:101C300040BF13F013FD13F0E7FC2568002121607D
:101C4000C0B213F00BFD002D0ED013F0DDFC29699E
:101C50000222914329616E69C0B213F0FFFCE96969
:101C6000284688473546EEE720BFE4E7084813F0EA
:101C7000EAFA08F0FFF813F0C5FB13F0FCFAC046CF
:101C80002026000078010020E0D9FFFF991B0010FA
:101C900008000000F0B503AF87B0059019200001DF
:101CA0000B184420085C0C4644340D4606940492FC
:101CB0000393C046784400794000874402AAAD24CB
:101CC0006700286802906E68A9682A69130359188A
:101CD00001916861AE61EA6129622C4624342021B9
:101CE00020461AF0C7FB04214D4A2046069C07F007
:101CF000DFFA039B049A029EAE64E86429650198AA
:101D0000686500201870241D20461146FFF746FE26
:101D1000C6B2052E04D10C2005990860032042E0CC
:101D20000294204607F016F8042E60D1284624308D
:101D300000212422AB5CDB435E08552434401B1B8E
:101D400033249E08234026409B191C091B190F248D
:101D50001C400919521C282AECD1002203290192A7
:101D600001D8114600E00121029A11706C692E6AB7
:101D700004212C4A07F09CFA2B4AB218EC642B463B
:101D8000503307C3039801990171049A2C464C34CF
:101D900020461146FFF702FEC6B2052E05D10C20E3
:101DA000059908600420069B30E0204606F0D2FF2B
:101DB000042E1CD1002024216A5CD24353085524F0
:101DC0001C40121B332394081A401C40121913099B
:101DD000D2180F231340C018491C2829ECD1069BA8
:101DE0001979002906D0042808D3002607E004202A
:101DF000069B07E0042804D2022600E001260B20FF
:101E000000E00620F1B2059A03C20120187007B065
:101E1000F0BD024813F07AF9FEDEC04664D7011027
:101E200054D7011074D70110FC0F0000F0B503AFB8
:101E30008BB005920C4602903520C0000D18392059
:101E4000C0000E18707E5431039100280696049548
:101E500004D003283BD0374813F058F900200190F4
:101E600068610121317134493160306907907269CC
:101E700023686168A360E1603046B67E0676AB6198
:101E80002E6807982D1D45C5C91A00D20199080B67
:101E9000049D2861090500D0401C069EE8616D2064
:101EA00080002018FEF747FAC00734D00020039ABC
:101EB0001070B160A068E2686B68AD68236165610D
:101EC000A061E26121620F2040012018F0602646E7
:101ED000103608A83146059AFFF7DCFE08980C2852
:101EE00013D009980790089D304606F06DFF0B2D22
:101EF00015D10798C0B2069EF16809788142049D09
:101F0000CDD1B268012500200CE0022002990860C2
:101F10000320069E0AE000200546024602E001205A
:101F2000069E079A029921C10A60012070760BB0C3
:101F3000F0BDC04684D70110FF0F0000F0B503AF1D
:101F400087B00D4602902820095C2E462836284688
:101F5000703003967944097949008F44025D60111D
:101F60004200002101705BCDA861E9612B626C62C7
:101F7000AE6228606B60AC60E9602E61039E143D28
:101F8000361D04A83146FFF785FE04980C2805D1BC
:101F90000C20029908600320039E3AE0059C0498F7
:101FA0000190304606F010FF019B0B2B26D13470B8
:101FB000E0B2022824D10120039C60712E464436F1
:101FC000202130461AF056FA042000212176696952
:101FD000AA696B6A1B039A1829636E632646A86375
:101FE000EA6330352846FFF7EDFAC4B2042C02D17B
:101FF00074790B2306E00020042303E0200A00E0AC
:102000000B23039E029AE1B2000240181360506055
:102010000120307007B0F0BD014813F077F8FEDE04
:1020200094D70110F0B503AFFFB092B006900C4604
:1020300098340846BC3004900846503007904078E9
:102040000D4605924000C046784480884000874491
:1020500005000501080128005800870000210391B0
:1020600007980170686C0290A863296868680190FD
:10207000AB6C0093EB632A6B6B6BA9602E460C363E
:102080000DC6E86C029E6E65009EAE65EA65059A17
:102090002B666866A9660199E96628640498039925
:1020A00001702E46543608A8314601F097F90C9875
:1020B000042804D10C20069908700320C0E00120F8
:1020C000079908702846183008A9182203901AF0BA
:1020D000B0FD304606F04AFFAE6A032E1FD10398CA
:1020E000006806281BD1002020702B4608330FCB38
:1020F000AC6BEE6B6C65AE65EA652B666866A966CF
:10210000059A2C4654340EA8214600F081F90E9809
:102110000C2809D10C2006990870042090E0A869C9
:102120000590EB69EC6A33E00F9803900E9E204611
:1021300006F082FE0B2E5CD1002004990870A8687E
:102140000490EE682A696B69AC6BE86B296C6C656E
:102150002C4658340DC469660498A866EE66059A44
:102160002C4654340EA8214601F038F9129E042E54
:1021700004D10C2006990870052061E00E980590A6
:1021800013990F98049020460C4606F0EFFE049B2E
:10219000180C0021079A1170022E09D0032E09D1C4
:1021A00099B20004401803900B24069D059E37E069
:1021B0000A2422E06A6998B2F10702D1824248D328
:1021C000042406462969294B2046FEF75FFC321B92
:1021D0008A423BD803460EAC2046194618F0D2FF7F
:1021E00024780A2C069D0AD1109803900F9E0B2488
:1021F00016E00020079908700B24069D10E00EA938
:10220000C87890AA907048788B781B0218181080B4
:10221000109803900F9E0C3151A8FC2219F022FD5A
:102220002C70681C90A903221AF003FD6E600398BD
:10223000A8600C3551A9FC22284619F013FD012095
:1022400007994870FE1F053EB546F0BD084B104685
:1022500001E0054B11461A4612F042FB014812F00C
:1022600055FFFEDEB4D70110C4D70110D4D701103A
:10227000E4D70110F0B503AF8DB009900846903057
:1022800007900846B03006900E46483670780D46E6
:102290000892C046784400794000874402B0B32CCD
:1022A0005A940020059030705849A967A86B049093
:1022B000E96B03912B6C6C6C0294A8622868019006
:1022C0006C68E9622A6A696AA860EC602A616961DF
:1022D0002B63029868672967EA660199E964089A9E
:1022E0002C6568630798049981610399C161069818
:1022F0000360059941712C464C340AA8214600F030
:10230000F3FB0A980C2804D10C20099908600320DB
:1023100072E00B980A99A961E861012030702046AB
:1023200006F0EEFDA8690B2821D006281FD1002059
:1023300007990870A86805902B460C330ECBAC6A41
:10234000E86AEC642C4650340DC40598E8652966AB
:10235000089A2C464C340AA8214600F059F80A98ED
:102360000C2807D10C2009990860042044E0A969D1
:10237000EC693CE00B990A98059020460C4606F063
:102380005BFD05990B2932D10021069A5171A86A8B
:102390000490E86A0590286B03906C6BA868029023
:1023A000EB6828696969E86629676C671748A86758
:1023B0000298E8642B650798049981610599C161C9
:1023C00003981060089A4C350AA8294600F08CFB47
:1023D0000A980C2804D10C200999086005200BE00C
:1023E0000B9C0A980590284606F08AFD0599002066
:1023F0003070099812C0012070700DB0F0BD024815
:1024000012F084FEFEDEC04604D80110F4D701109D
:10241000F0B503AFFFB082B00A920D4606901F20C0
:1024200000010B18112040010A184420085C0C46DA
:1024300044340E467036903108912946B8310991DE
:102440000796400078448088400087440800500088
:1024500056002400C600090132014F017D0101939D
:1024600002920594002030762A682E1D51CE2969EB
:102470006B69AA64E86429656B65AA61E9612B62EE
:102480006862AC62EE62079E3446183404942C46AF
:102490004834039415E0019302920594284648308D
:1024A0000390304618300490307EC046784400795E
:1024B00040008744021F22365500AA6C2B464C333D
:1024C0000BCBB54CEC6700242C676967AA65E965FE
:1024D0002B666866AC6601203074591A00D221461A
:1024E000080BE866090500D0401CA86706E0A9486B
:1024F00012F00CFEA64812F009FEFEDE28466830F7
:10250000FDF719FFC0073FD00020099A10767161CE
:102510002C4658341DCCF0610898046042608360FA
:10252000C16034461C3416A821460A9AFFF7B2FB54
:10253000169E0C2E71D0204606F046FC0B2E21D0A4
:10254000062E1FD10020099908702B4658330FCB57
:10255000079EF0617069089C23606160A260E06082
:1025600029468C3116A801F05FFD16980C2856D02C
:10257000169C0B2CC2D0179E0120049908700C2CBD
:1025800006D14FE0079EB9E70120049908700B249B
:10259000039806F046FC0B2C00D0F0E0A8690890E8
:1025A0002E461C3643CEA864E964284650300D21DF
:1025B0004A0116A919F056FB0024019804607D20F9
:1025C000800028180BA92C221AF033FB0120029955
:1025D00088724C72089841C1059C2E4648367EA8E8
:1025E00031460A9AFFF722FC7E98022804D10C207B
:1025F000069908600420C6E005940490809808902D
:102600007F9C304606F0EFFB0498C0070FD00120F6
:1026100028636C63089EAE63B1E0032000E00420F1
:10262000049908700C20069908600320AAE000268F
:102630002E636C63089AAA63E00700D19AE0EA630C
:10264000E869296A01F0DEFC286407990E772C46B8
:1026500018341ECCA964EC642A656B65A865059CDA
:102660002E4648367EA831460A9AFFF713FB7E981D
:102670000C2804D10C2006990860052083E00594FD
:102680007F9808907E9C304606F09EFB0B2C73D101
:102690000898C0B202286DD00020079E3071E86B08
:1026A0002C4618341ECCA964EC642A656B65A865B9
:1026B000059C294648317EA801F0B6FC7E980C287E
:1026C00004D10C200699086006205CE005947E9CED
:1026D0000B2C53D100203070E86B2C4618341ECCE4
:1026E000A964EC642A656B65A865059C2E4648368E
:1026F0007EA831460A9AFFF721FC7E980C2804D167
:102700000C200699086007203DE005947F9808900A
:102710007E9C304606F07BFB0B2C2DD100200999C6
:102720000874E86B0990286C08902E4618365CCE29
:10273000A86AE96AAA64EE642A4650321BC2089865
:10274000286609986866059C48357EA829460A9A35
:1027500000F024F87E980C2804D10C20069908601B
:10276000082010E005947F9E7E9C284606F087FB9B
:102770000B2C04D10B2402E0089E00E07F9E0698FB
:1027800050C00120059C2070FE1F053EB546F0BDDF
:10279000A4D7011014D80110FF0F0000F0B503AF4B
:1027A00097B00E4601902520C000081805908020A3
:1027B000085C80310B913146A03108913146E031FF
:1027C000029115460C9609924000C04678448088D4
:1027D00040008744060048004B005800C700340002
:1027E00061013068039070680A90B0680690F068E4
:1027F000079031690C98406900900C9883690C9897
:10280000C4691A03081D86180496240300190C9C39
:10281000039E26620C9C61620C9C009EA6620C9E2C
:102820000A9CF462069C3463079C7463B363F06390
:102830005018AB49401804993164706417E0059C46
:102840002078002805D0032800D1E3E0A24812F048
:102850005DFC0B98446881680A91C168079106691C
:1028600042698169BDE09D4812F050FCFEDE002007
:1028700008990871306B716B326A40360B9C666048
:10288000A260E06021610B98061D10A831462A461F
:1028900001F050FA1098022800D1E0E0079010A84B
:1028A0000C30119D129906910DA91CC81CC130460F
:1028B00006F00AFA06990C9E0A95F56431650798A8
:1028C000C00700D0D0E0304654300DA91CC91CC050
:1028D0000025B5640A98002800D1D0E03066F06D7C
:1028E000314650313246643258C958C20C9C206778
:1028F0002046603019F04CF8042900D2E1E0C1789C
:102900000A91817807910178069140780490246EAD
:102910000C98466E0C98C6670C9884670C98026AEF
:102920000C98436A0C98806A03900C98C16A0B9DBE
:102930000C9874306A602A46083252C26861AB61F2
:102940000398E86100200299087304980002069930
:102950004018079909040A9A1206511808180C9988
:102960004867099D0B98041D10A821462A4600F0CF
:1029700035FD149E042E6DD0119D10980A90139869
:10298000079012980690204606F0F0FA022E70D0BA
:10299000032E70D00C9EB16FF26F524B069819F057
:1029A00007F8059A1582506091600A98D060306FE0
:1029B00007998142099D00D059E7141D002010702D
:1029C000F36B326A243662CE0B9844600A928260BE
:1029D0000796C6600E4601612A464561099D194663
:1029E000836104920691204618F0D2FF0B9A0A9B4D
:1029F000D3610834089A079B18C2083A1346083373
:102A000043C30498506106989061002002990870B1
:102A10000C9E059C31469C3110A801F0BBF8109823
:102A20000C2810D00120207010980B2808D1208A83
:102A3000C01C03218843F16B08180830F06316E7C7
:102A40000C2802D03AE0032020700C200199086085
:102A500005203CE00C2001990860042037E00C20A0
:102A600001990860032032E00120B06401980A9ABD
:102A70002AE0062221E001980A9A294624E0002053
:102A800008990874B06B344620341ECC0B9D6960E5
:102A9000AC60EA602B616861843610A8314601F0B1
:102AA000C3FA10980C2804D10C2001990860062064
:102AB0000DE010980B2801D10B2204E01199024679
:102AC00001E004212A4601980260416001200B992F
:102AD000087017B0F0BDC04608DA011024D8011004
:102AE000FC0F000020100210F0B503AFFFB098B04B
:102AF00011920990472080000818039085208000DB
:102B000008180D909120800008180A90FF200B9063
:102B100000010C900846883010900846A8300E90AE
:102B20000846D4300690084668300F9040780D462D
:102B30001395400078448088400087440D00B3001E
:102B4000BC00E6001C014A00400068002903500355
:102B50007603A603B201D601E86D1290286E0890A4
:102B60006C6E03CD139D2D6A139A566A139A926A5E
:102B70000792139AD26A0592139A129B1363139ABF
:102B8000089B5363139A9463139A9060139AD160CD
:102B9000139A1561139C6661079AA261059AE26116
:102BA0000C9A0F3203461340149368D10A401592D1
:102BB0006CD10A1A520B70D00023E3637CE00398B7
:102BC0000078002841D0032800D1DBE3194812F037
:102BD0009DFA29466C310D9802461C32007F002870
:102BE000029105923DD003285FD1109C2046103001
:102BF00004900D98014618310891007E00280E9E21
:102C00003AD0032800D1B3E10B4812F07FFA2846EE
:102C10006C300790109A10460C300890107B4000E2
:102C200078448088400087440900430046004202FF
:102C30007302C04618DA0110E8D90110286F12900B
:102C40006C6FAB6FE86F05901CE2286F0D906C6F96
:102C5000AE6FE86F11900F9883690C93C069129062
:102C600076E30F988369C0690890E86F1290E86E68
:102C700007900E9E0D9AF1E02169606901E1002044
:102C8000169014A816A9E04A07F0E6F8002016905E
:102C900015A816A9DD4A07F0DFF8DD485121DD4A05
:102CA00011F040FEDC4812F031FADC4812F02EFA46
:102CB000DB4812F02BFAFEDE0A1A0024814200D211
:102CC00022461293150B6E1C0C980F30024207D14E
:102CD0002E4605E000202946224601F085F9641CB5
:102CE000A642F7D11298B04200D113E100200D990D
:102CF000086001210A9A91725072139DA868E968D0
:102D0000E8662967286B696B03C22E466C3616A8E5
:102D10003146119AFFF78AF8169D022D00D1FBE08B
:102D200018981290179C304606F05DF8E80700D01E
:102D300003E10026139D2E646C64129AAA64E007D6
:102D400000D1A1E0EA641398056B1398406B0890DA
:102D5000139884681398C1680791204601F052F9CE
:102D60001399CD66139D089929676C670799A96720
:102D7000E8670E9806722C466C3416A82146119A04
:102D8000FEF788FF16980C28029400D1C9E020466F
:102D9000179E169C06F018F80B2C00D0CBE0F0B272
:102DA000022800D08AE26A69042A00D2CCE0AE6828
:102DB000E86C1290A86B046829690420994B18F0FC
:102DC000F7FD042900D0C5E008960470210EC170FB
:102DD000210C8170210A41702E46103656CE0420F7
:102DE000914BFDF75FFE02460B46F66816A821469A
:102DF000B0471798169C042C00D0A9E0061D2E653C
:102E00000A24300C00D0D5E20C998E4200D9D1E2D0
:102E100012980003089A8018021D12920B180C33A6
:102E20000F9883610896C66100200D9A1077A968F3
:102E30001398C5681398006B139E766B139C0790CC
:102E4000E066139C2667139E716713998D67139D27
:102E50001298E86711461C3105910E9E00211176EB
:102E6000109C214608312360089860601298A06089
:102E7000E36021610798606118320892224610329F
:102E80000492A161E0616BE00D98066002200A9A4D
:102E900090725672A868E968E8662967286B696BC2
:102EA00003C22E466C3616A83146119AFEF7BEFFB5
:102EB000169D022D2AD018981290179C304605F0C6
:102EC00092FFE80700D075E2E00700D1F6E10020AC
:102ED00010990873139DA868E9682A6B6B6BEA6602
:102EE0002B676867A9671298E8672E466C3616A8A4
:102EF0003146119AFFF722F816980C2816D0179829
:102F00001290169C304605F082FFCEE10C20099904
:102F1000086054E205244DE20C2009990860032062
:102F20004DE20C2009990860042048E20C20099920
:102F300008600D2043E212963CE2012013990864D8
:102F40004C641298886435E204201290002431E227
:102F500012902FE20423334A0846194612F09EF8D5
:102F60000A68496805C6316000200D990875083E59
:102F700016A83146119A00F0E7FC3046169E032E43
:102F800000D19DE116A94A89079209891291179CDF
:102F900005F0AAFE022E05D1062C14D1109B9869CB
:102FA000016809E0109B98690468F1070AD012993A
:102FB000C91C032291430919083101609969D86934
:102FC0000E9ECDE7009401210898019101700498AC
:102FD00006F043F8022E05D1129880B20799090431
:102FE000081824E0109A1068009BC01A00240828D2
:102FF0001CD3032188430838516888422046019930
:1030000016D30C46184613E0B8D80110A8D8011002
:1030100044D8011098D80110C8D80110F8D901106F
:1030200044D701109C100210D8D8011020460199F5
:10303000129005980170029805F08CFF022E00D1C5
:10304000B8E1E00700D061E1002010990873EA6C54
:10305000AC68EE68286B696BE866129128467030A0
:1030600052C00592EA67284695300B9AC83216A9D5
:1030700019F0DFFD109A334628466C300790104651
:103080000C3008900F9E0294F46104931360129C1C
:1030900054600599916000200E9B18761960E86EC7
:1030A000B06110615461029890610498D061164635
:1030B000103688A83146119AFEF740FF88980C28F0
:1030C00000D10CE189981290889C304605F09FFE53
:1030D0000B2C2CD112983070C0B20B2401282ED1A9
:1030E0002C46B0342021204619F0C4F904200021D8
:1030F0000E9E31710F9A9169D269109B59619C6142
:10310000D8610C9880189968090340180C30306019
:1031100028469C30FEF756FAC0B20B2412900428C1
:103120000E9E0799089A00D10CE004240AE00120C1
:10313000089908700C2C0E9E079905D1D2E00E9EBE
:103140000799089A01201070084605F028FE0B2CFC
:1031500000D02FE1EA6CA868E96800F053FF6865C9
:10316000A968EA682B6B6C6BEB662C676967AA67CA
:10317000E8672846803088A9302219F05AFD0020DF
:1031800030722846B1300B9A543216A919F051FD0D
:103190002E466C3694A83146119AFEF77BFD949822
:1031A0000C2800D196E095981290949C304605F03A
:1031B0000BFE0B2C00D0FDE00F9812990170C8B2E5
:1031C00002287BD1002010990873686DA968EA680D
:1031D0002B6B6C6BEB662C676967AA67E8672E46FA
:1031E0006C3616A83146119AFEF7A8FE16980C28E0
:1031F00000D181E017981290169C304605F007FE2A
:103200000B2C00D0D6E06A6DA868E96800F0FAFEE1
:10321000A86500210E9A1172A968EA682B6B6C6B85
:10322000EB662C676967AA67E8670F98061D16A802
:103230003146119AFEF72EFD16980C2861D017988A
:103240001290169C304605F0BFFD0B2C00D0B1E06B
:1032500012983070C0B202282AD000200699087750
:103260002B4608330FCB2C6B139D6D6B139E34676D
:10327000139C6567139DAA67EB670F9A9061D161F4
:10328000686DA96D109A116050602E46703616A8B0
:103290003146119AFFF782FA16980C2827D0179812
:1032A0001290169C304605F0EAFD0B2C00D081E010
:1032B000E86B431CEB63A868E968FDE4062479E049
:1032C000032005990870089908700C200999086076
:1032D000052074E00C200999086008206FE00320A5
:1032E000089908700C2009990860072067E00C20F5
:1032F000099908600B2062E00C20099908600920F8
:103300005DE00C20099908600A2058E02A6D69697F
:103310000B928A425BD80F99129ACA61AE68EB6829
:1033200028690A902A6B6C6BEA660D942C676867B3
:103330000B9CAC671196EE670C938B6116A99422D7
:103340001098264618F08EFC0020039908700A9CFD
:103350001398C56E2046314618F05AFB10998E809E
:1033600008600E980C9A0260129A42600020069A39
:1033700010708D60139D0D98C86009614C618E615D
:103380001198C861903588A8294600F003FC8898F8
:103390000C2807D10C2009990860032003990870B4
:1033A00006200CE0899A889C0120039908700B2C58
:1033B0000BD10B24099804601299416001200F99E8
:1033C0004870FE1F053EB546F0BD1292F2E7024A74
:1033D0000B9811F085FAC046E8D80110F0B503AF9C
:1033E00097B016460D4606903D20C0000818039081
:1033F000852080000A18912080000C186820085C45
:1034000068310A91294688310B912946B4310491DB
:103410000C9609954000C046784480884000874457
:103420000B00360139017300B2003A006700FD005D
:103430005301AB01E3012302059207945CCD286898
:103440000D906868A968EA60103D2A4620325BC288
:103450000D9A6A63F44AD21C034613400E9300D0BF
:1034600002E10A400F9200D005E1081A400B0C9EC1
:10347000079C00D106E10020059A10600121A1728D
:103480006072E8690D90296A686AAB6AE966286724
:103490000D9809C4083C059207942C466C3410A87A
:1034A00021463246FEF7C2FC109E022E01D10520B5
:1034B000F1E012980D9011980890204605F093FCC9
:1034C000F00700D00EE2089828640D9A6A6400287C
:1034D0000C9E00D0C1E00020059908600221079CE5
:1034E000A17260722B461C330FCBE9662A6709C4B0
:1034F0002C466C3410A821463246FEF797FC109EED
:10350000022E0FD10620C6E0059207942C466C349B
:1035100010A82146324600F017FA109E032E11D152
:103520000320B8E012980D9011980890204605F0FD
:103530005AFCF00753D00120E866089E2E670D9CC8
:103540006C676DE112980D9011980890204605F077
:10355000CBFB022E00D1C5E1F0070C9E0D9B079C12
:1035600089D0002003990870E86A296BEA69EA6645
:10357000286769670898A867A86BE96B0A9A906141
:10358000D1619382059A059207942C466C3410A859
:103590002146324600F05AFA109E042E03D104212F
:1035A0001022084679E010A8008A029012980D9027
:1035B0001198089013980190204605F0ABFB032E5C
:1035C00000D18FE1022E0C9E0D99079C00D252E78C
:1035D000A86B0C9000200B46019E029C43E000204B
:1035E000E866089929670D9E6E67C90739D0049966
:1035F00008732C461C341ECCE9670A998C61CA6199
:103600000B990B60991A00D20146002E0C9A00D13A
:103610000E0B701EA8670B99486016462C467C342A
:1036200010A821463246FEF735FB10980C2801D130
:10363000072030E011980D90109D204605F0C4FB46
:1036400008950B2D00D04DE10D98000600D0ADE09F
:103650000120099DAA6F28646A64AA6400204C2195
:103660001DE006260320DDE0002010900EA810A922
:10367000AF4A06F0F1FB002010900FA810A9AD4A48
:1036800006F0EAFBAC485121AC4A11F04BF9A748CF
:1036900011F03CFDFEDE04211022069D32E168504F
:1036A000286A11030818A0494118001DA865E9659A
:1036B00000200B990871E86A296BEA692B46583398
:1036C000EB662A676867A9672C466C3410A8214608
:1036D000324600F02FFB109D022D6DD014980890FB
:1036E000139807901598059012980D90119E2046FA
:1036F00005F0EAFAE80761D1002E22D0079812906F
:103700000D98119010960898139010A818F040F991
:1037100004290C9E099D58D3017842781202511851
:1037200082781204C078000680184018696B096816
:103730008842BDD104200121E964059929656865A5
:10374000B6E7099DE86C00280C9E41D10020049941
:1037500008702C461C341ECC29676C67AA67EB677F
:10376000991A00D20146080BA96C002900D008461E
:10377000401EE8660A9988612C46703410A82146DC
:103780003246FEF787FA10980C2813D011980D9046
:10379000109E204605F018FB0B2E11D10D98000647
:1037A00004D1E86E482102460C9E78E700240220EE
:1037B000224637E009206EE708206CE70D9C2FE0D9
:1037C0000D9C220C0320069D91E00424002627E096
:1037D000002003990871296D6A6D29666A66C043E5
:1037E000EA69EA66296768672C466C3410A82146A6
:1037F000324600F0A9F8109E032E01D10A204AE7B4
:1038000012980D9011980890204605F06DFA022E3E
:103810000CD10220A867089EEE677C350D9C6C6079
:10382000220C0320069D62E0FC0F0000AE670898A2
:10383000E86728467C300D9C4460F0073AD00020B1
:10384000E866089929670B9B9960039908760A9A9C
:103850009481E969D161C043296E196158619C81E5
:10386000E86A296B03C30C9E2C46843410A82146B9
:10387000324600F0EBF8109E042E01D10B200AE72F
:1038800012980B901198079014980D90139805902A
:10389000204605F03FFA06200890C0467E4436795F
:1038A0007600B7441F340F010B9B1A0C0320079EB0
:1038B0001C46B7E7002406260120E8662E676C67E1
:1038C000032075E70798002808D0286E0C90696ED1
:1038D0000120059E069D0D9C0B9B08E005980D9010
:1038E0000B9808900D9C220C0320069D089EA4B204
:1038F000120412192E606A60AB600C9AEA602861AB
:1039000001201422A9500A99087017B0F0BD0020B8
:103910001490012111910A491091139004201290E2
:1039200010A8084910F0B8FEFC0F000028D90110BB
:1039300018D9011008D9011044D80110F8D8011085
:10394000A4DA0110ACDA0110F0B503AF85B00C4673
:1039500003905F208000081804900079002804D0AC
:10396000032824D0364811F0D1FB01922068009042
:103970006668A068029025460C352021284618F07C
:1039800079FD08212F4A284605F092FCE062216368
:103990008A19029B9A4201D9002042E0009A626390
:1039A0002246383243C2002004990870019A254605
:1039B000343528461146FDF7F1FFC6B2052E03D176
:1039C0000320039908602FE0284605F0C3F9042E70
:1039D00025D1E56A216B002002469142DDD0AB5C27
:1039E000521CFF2BF9D0072925D9A879E9790902BA
:1039F0000C18281D17F0EAFF80B2A04218D12878D1
:103A0000697809020818A9780904EA781206511899
:103A1000091828796A7912021618012001E0042198
:103A20000220039A43C201200499087105B0F0BD39
:103A300000260621F4E70820034A10F051FFC04693
:103A400088D9011078D9011098D90110F0B503AFC9
:103A500089B00D462F21C90069180B79002B13D0AE
:103A600006900891032B00D088E02E463036304671
:103A70001146FDF793FFC4B2052C27D10420069907
:103A80000860032008995AE003922C8A2C842E1D8A
:103A90004CCEEE6104926A620593AB62002E30D088
:103AA0000690089128680290EE62E31C03211846F4
:103AB000079188436A69A9690832019212188A42FB
:103AC00025D900230793089906981EE0304605F093
:103AD00041F9042C24D1298CAB6A8B4249D3686A02
:103AE00017F096FF6A6AAE6AE96A2C8CED69884223
:103AF00037D1264B334002200790304616460594B6
:103B00000CE00026012207923346049D0EE0059A40
:103B1000824217D2012109040B400826044603E023
:103B2000002304260320079008990698A2B21A439E
:103B3000079B48C002604560059A826001200871B9
:103B400009B0F0BD104B0499FCF75AFD029A2A63A4
:103B50006863A9630198E863002008990870039AD4
:103B600083E7059600232E46079308990698154685
:103B7000DCE7074A0846194610F0B2FE014811F08A
:103B8000C5FAC046B8D90110A8D901100000FFFF3E
:103B9000C8D90110F0B503AF89B00D4606464420E0
:103BA000085C443107912C468034C0467844007943
:103BB0004000874402B1B41868990696002020722C
:103BC0002B68AE68E8682969EA690296AE64EB641E
:103BD0002A6503932B626862A9620492EA62204616
:103BE0000830059011E0204608300590207A002822
:103BF00004D0032826D04A4811F088FA0696A86C0B
:103C00000290E86C0390286D04902E4654362021D3
:103C1000FF22304618F08AFC029908686865898896
:103C20000798818208A8018017F0D0FE0799C88202
:103C3000082003996967AE67E8670020207104983F
:103C40002060069E28467430FDF7BCFC0121059AD1
:103C50001170C0B2042850D10020079908752B6A52
:103C6000696AAA6AE86A0324069616462640A243B1
:103C70000830AB64E9642A6568658B182C463034DB
:103C80004EC4069E286428464830FDF79BFCC0B20F
:103C9000042832D10696EE6B002E36D02C465C34CA
:103CA00020210591204618F0E5FB1F4B30462646A3
:103CB0002146059AFCF7A4FCAA6BEB6B1B4C009405
:103CC00017F046FAE86BC01C0321884321281FD255
:103CD0000021079A1175296A2A6C6B6B9A18A964DE
:103CE000EE6428656A65069E48352846FDF76AFC3D
:103CF000C0B2042801D10B2100E0042131607060C2
:103D000001200799087009B0F0BD0B21069EF5E768
:103D10002021074A10F0E4FD024811F0F7F9FEDE19
:103D200068D9011028DA011038DA011048DA0110D8
:103D300058DA0110F0B503AF95B00A920E46019023
:103D40006D2080000C182020085C20310291314643
:103D5000483103910B94C046784400794000874471
:103D600002272D08BC000FCE103E354610350FC57A
:103D700025E03246243221461031207C002807916C
:103D800006920FD0032816D130462C3008902246D8
:103D90000C32207B002808D0099203282CD07A48C6
:103DA00011F0B4F9706AB16A13E0F06A316B19E08E
:103DB000774811F0ABF9754811F0A8F9FEDE706292
:103DC000B162002222742246103207923246243217
:103DD0000692F06231630022227322460C3233468F
:103DE0002C33089309927063B16302684068F163F1
:103DF000326470640020207235463C3510A8294694
:103E00000A9AFFF7A1FD1099032900D189E010A8B3
:103E10004289059200890F90119C28460E9104F06A
:103E200063FF0E99022909D1062C19D1706B016824
:103E300008310160706BB16B0B9CD6E70C94706B12
:103E40000368C907002200290D9310D00F9DE91CBB
:103E500003229143C918083101600120049007E052
:103E60000C9402200490099908980F9D02E0049296
:103E70000999089801240C7005F0EFF80798047070
:103E8000069804F03CFF0E980228A8B25ED005996F
:103E9000090408180499B1620C9BF36230630D9A0F
:103EA0007263C8075BD07262B1690020B0610029FB
:103EB00067D02C460D92F2691D4633690F947469E0
:103EC0005B68B46334463C3426C403990F9A0A8075
:103ED0000D99F16433650B9908703446383410A895
:103EE00021460A9AFFF7B2FD109D042D14D01298B6
:103EF0000D9011980C9014980F9013980E902046E6
:103F000004F008FF022D16D20E98B0610F98F061F0
:103F1000306971690B9C52E7022001990860042006
:103F200007E0032007990870099908700221019A97
:103F30001160029922E00F980D9D0C9B14D1716ABB
:103F40000B9100240299019A0E9E10E00221059A1D
:103F500012041518B1620C9BF362356301E0002472
:103F600023460299019A02E0019A01240299146001
:103F7000141D68C410610B9850610120087015B0C1
:103F8000F0BD044810F0B2FFE8D90110D8D90110F3
:103F900068DA011078DA0110B0B502AF0D460446B8
:103FA000087F002804D0032809D00E4811F0AEF88D
:103FB0000020287607CD0C3D2B460C3307C328463E
:103FC0000C30FDF797FA01212977C2B204210B20AA
:103FD0000023042A00D01346636000D00846206006
:103FE000B0BDC046BCDA011080B500AF002904D0D6
:103FF000801818F043FE084680BD014811F074F89F
:10400000CCDA011080B500AF081A00D20020010BF5
:1040100004D0501C18F032FE084680BD014811F053
:1040200063F8C046DCDA0110F8B504AF04460D466B
:1040300028352879002804D0032814D0134811F01B
:1040400065F8002028708868CA6800920B690E68BD
:104050001B031B18012212039A18486100988861FB
:10406000CE610B624A621C310846FDF743FA01211A
:104070002971C2B204210B200023042A00D0134668
:10408000636000D008462060F8BDC046ECDA01103D
:10409000F8B504AF0C460646C178204606F02EFE61
:1040A000C0B20225102812D1B178204606F026FEB3
:1040B000C0B210280BD10020305EC2134100514025
:1040C000204606F0F3FDC5B2102D00D0022528468B
:1040D000F8BD80B500AF0A46012101401046FDF74A
:1040E0004DFC80BD80B500AF0A46012181431046DA
:1040F000FDF744FC80BDD4D4F0B503AF89B00546CC
:10410000007900242146FCF757FB2A4800680390F9
:104110002949022005900860284A10690290106819
:10412000019001235E04264806960660281D04902F
:1041300007909B06234D042C09D007AE36593678DC
:10414000F606B60D1E431661D560241DF3E70298EE
:10415000106101981060039884071B4E0C4600D52F
:10416000344605982060134C246803940860146951
:10417000029414680194069C114E3460049C0894C7
:104180000026042E0BD008ACA4592478E406A40D14
:104190001C4314612C467F34D460361DF1E7029B2A
:1041A0001361019B1360039A920700D506490860CA
:1041B00009B0F0BD0000205000302050E400205035
:1041C000E430205001E0000000202050F0B503AFA3
:1041D00089B03049096803912F4A012111602F4BA2
:1041E0001C6902941C6801944C042D4D05942C60AC
:1041F0000690001D04900790072044038D060020C0
:1042000004280BD007AE36583678F606B60D2E4386
:104210001E6126468136DE60001DF1E702981861B6
:10422000019818600398C0071E4E104600D0304613
:1042300001601848006803901160186902901868BE
:1042400001900598164E30600498089000200428CC
:1042500009D008AE36583678F606B60D2E431E61E4
:10426000DC60001DF3E7029818610198186003985C
:10427000C00700D00B4A116006994879002801D187
:10428000042000E00620085C0321FCF795FA09B041
:10429000F0BDC0460000205000302050CC0020501F
:1042A000CC30205000202050B0B502AFDC07BC68F5
:1042B00006D0002901D0002C2AD11A490180B0BDB6
:1042C000002C1BD1190ACDB2042D19D2FF210904EB
:1042D00019400C0C3F2189041940890C032914D280
:1042E000602169435118E2008B5A03808918CA88FB
:1042F000C2808A88828049884180B0BD012105E062
:104300000421064A284610F0A9F90C21034A01E0CD
:104310000121034A204610F0A1F9C046A0E1011096
:10432000B0E101106D08000080B500AF090600D0B3
:1043300080BD03490122425400F012F880BDC046FE
:104340008905000080B500AF090600D080BD034993
:104350000022425400F004F880BDC04689050000E8
:1043600080B500AF0E49425C012A0CD14118487853
:10437000002809D1487B002802D0887800280BD17A
:10438000C878002804D180BD0121064A10F066F9E2
:104390000121064A10F062F90121034A10F05EF98A
:1043A0007C050000F0E1011000E2011010E20110B4
:1043B000F0B503AF8DB00B23DB010291CE18140EC4
:1043C000150C110A0992D3070394049005D0C9076C
:1043D0000BD05248049908805FE023462A06CC0798
:1043E00008923FD0307A1A464CE0317AC9B24C423A
:1043F0004C41737A23430324E101766801917118DB
:10440000EAB26020089250433018039AD200801814
:104410000690A00607903C4CDA0705928E42D8D051
:104420000819B0424FD1002A3146F7D00898042825
:1044300051D209980799884252D2069A9088D18819
:1044400009040D180B951088518809040C180A945A
:104450000AA8304905F000FF002820D031462A4C38
:10446000059ADBE7E8B2940E3FD1099A940E032C2B
:104470003FD20C24444302980419E05C357A039B34
:10448000E554039AC9B2089B1B0CC9181304CB1836
:1044900006CE00900498FFF707FF0DB0F0BD099815
:1044A0000002800E2AD10C2008994843029908186E
:1044B0000021039A815404990C808D80200C48803F
:1044C000280CC880E9E7801B019918F0BAF801218F
:1044D0000E4A10F0C3F804210D4A089810F0BEF8F7
:1044E0000C210B4A039810F0B9F80421054A10F08A
:1044F000B5F80C21034A184610F0B0F80421064A1A
:10450000EBE7C04630E2011080FEFFFF40E2011001
:1045100050E2011080E20110E0E101106D0800009E
:10452000B0B502AF8EB00468211F072900D3052162
:104530007944097949008F4403332F3127354500E9
:10454000007901A9087002912F4810F07CFE2F48D5
:1045500010F05AFE2E48049002A803900020099003
:10456000012406942B48059008940BA807902A482C
:104570000C9003A80B900DA805A910F027FE274862
:10458000214610F079FF2DE044681B4810F05BFED7
:10459000204610F043FE25E0194814E0174812E0C9
:1045A000184810E04568124810F04DFE114810F010
:1045B0002BFEC0467C4424796400A74401100709FF
:1045C00000200DE0094810F049FE0DE0022007E050
:1045D000032010F02FFE059505A80421D1E7012046
:1045E00010F028FE10F00EFF0EB0B0BD3F0000002E
:1045F0003E0000005C0000003D0000003C000000A8
:104600003B0000003A0000003900000002000000FA
:1046100060EE011068E201103D51011070FA0110C6
:10462000F8B504AF0E4A8618825C012A03D0002A2E
:1046300013D1022010E0C9070FD10849401874783F
:104640000068084904F09DFD0D462146FFF77AFEFB
:104650002868401C286003203070F8BD8C050000DD
:10466000D6050000B8E40110F0B503AF89B00E46DE
:1046700004462220205C002804D003280CD04048A7
:1046800010F044FD3F482060206120461830221D74
:1046900028C828C200881080237904212171042BA6
:1046A0005ED0256838480068C0055BD10496059344
:1046B000286800285BD1631D2E46B4360020019087
:1046C000C0432A4601C50295307A0028039312D0D0
:1046D0001E4604990B6848680490154610460C3035
:1046E0001946049A11F0E9F906A80922314618F092
:1046F000A0FA059A1CE0049170680A21414315460E
:1047000050180599017515300922194618F091FACB
:104710007068401C1028019900D001467160306813
:10472000884201D101203072029811F0E1F9049A17
:10473000264622362868401C2860042A09D02271A7
:1047400006A914460922039818F073FA224603209A
:1047500000E001203070101F411E884109B0F0BDFB
:104760000C4800E0094810F079FD10F084FD08487D
:1047700010F069FD05F014FC10F044FE10F07BFD14
:10478000C8E40110902B002004ED00E02700000099
:104790001700000016000000D0B502AF0B4B0B4015
:1047A000E02B0CD12F2252018418084616F05CF938
:1047B000617801436170217801432170D0BD8BB2D3
:1047C000E82B01D200F0ECFFD0BDC046F80F00008E
:1047D000F0B503AF8FB00E46054620200190285C4F
:1047E00043214901059101210491090208912C46B8
:1047F0002034800001A108580994874645480010DC
:10480000A9480010AF4800106F4D0010A54D0010D2
:10481000BD4C0010E54C0010094D0010E14D00109A
:10482000074E00102D4E0010514E0010734E001018
:10483000A34E0010BB4E0010374D0010554F001016
:104840000D4F001029686868A860E9600122C90757
:1048500002D0002000F08BFB0792214634464E78B0
:1048600073494058734904F0ABFC303000223306E2
:1048700008D0089B9A4205D2835C002B00D1761E9B
:10488000521CF4E70868401E08600898824206D16E
:10489000694810F0E3FC0020099C079A67E30020B8
:1048A0002A616861264603E0644810F02FFCFEDEB2
:1048B000A8685F494058624904F082FC0A462969A9
:1048C0006B6907935B18FE2B24D802920396C218DB
:1048D0003026905D002820D0012824D13032507835
:1048E000401E00210628009100D9B4E14000C046D6
:1048F0007844808840008744C400CD00A500AE0005
:104900000600060006000598041D079B1B1D0021DC
:10491000039ED2E0059C069903E0059C039E069940
:10492000029A079BA1E1083800210091772800D95D
:1049300091E140007844808840008744770022015C
:1049400012018C018C018C018C018C018C018C0179
:104950008C018C018C018C018C018C018C018C01EF
:104960008C0134018C018C018C018C0138011801FF
:104970002401260144013C0100011A010E01F80046
:104980002C012E014A014601F40010015201F600EB
:104990000C01FE001E01FA0060015E010801140115
:1049A000320116016801020148016601EE003A0178
:1049B000EC00E8000A0120015001DC00F0002A01AF
:1049C00036016A013001E400DE0076016401E20094
:1049D0003E014E01E0005C0154017E016E01780150
:1049E00056015801FC006201D0006C0172011C01EB
:1049F0007A015A01D400F2004001D8008201CE00B1
:104A00000601C600CA00EA004201D200E600C40066
:104A100074010401D6004C01C8008401C200CC001E
:104A2000DA00C0007C018601700189012A2010E1B2
:104A30008C050000E8E401102D000000F8E40110EE
:104A400008E50110FE2B039E27D0907814F098FE05
:104A50000599CC1C2EE0FD2B039E21D290780121DC
:104A60000128079B00D80846D278012A00D80A46B8
:104A7000FF214A431018C94341180598041D1B1D06
:104A80001BE0FE2B039E08D0907814F079FE059968
:104A90004C1C0FE0FE2B039E07D1079BDB1C01E0A3
:104AA000079B1B1D059C069907E0907814F068FE93
:104AB00005998C1C079BDB1C81B2029AD5E02F2044
:104AC000BCE01B20C5E01420C3E00E20C1E019208B
:104AD000BFE00F20BDE01C20BBE00C20B9E023208C
:104AE000ACE01220B5E00720B3E01720B1E00A20C7
:104AF000AFE01D20ADE00A20A0E011209EE01720CD
:104B00009CE014209AE0102098E01320A1E00620F9
:104B100094E010209DE0052090E01F208EE00B2007
:104B20008CE0082095E0372093E01E2091E02720BC
:104B300084E022208DE031208BE0002126E024203B
:104B40007CE02E2085E0162083E00D2081E02520EA
:104B50007FE0072072E01F207BE026206EE03820F7
:104B600077E0282075E0262073E0332071E01E20D6
:104B700064E034206DE004206BE0212069E008202F
:104B80005CE02B2065E0342058E004990198009007
:104B900061E00C2052E0252050E02E204EE00F2056
:104BA0004CE033204AE0292053E00D2046E02C2041
:104BB0004FE0042042E0222040E015203EE00920A2
:104BC00047E0112045E0212038E02D2041E037204A
:104BD00034E036203DE018203BE016202EE009208E
:104BE0002CE0272035E0192028E01D2026E02F208A
:104BF0002FE006202DE0182020E0242029E02320AB
:104C000027E0002122E0132018E0382016E03620AB
:104C100014E00E2012E02D2010E01B200EE03520C5
:104C20000CE0352015E0152013E0122006E01C20D2
:104C300004E005200DE0312000E01A2000900499E6
:104C400009E00B2005E01A2003E00499009602E039
:104C50004C2000900021FF200A46069981438918C4
:104C6000079B5B1C039E029A009CAB611068401E70
:104C70001060C5482018052800D305200691400083
:104C800078448088400087445B01050061007D0016
:104C90004A009800A983A868BC49344600264654B7
:104CA000EA68A98BA868FFF777FD01200999887247
:104CB000099846722646099CA868686228462430EE
:104CC000314603F051FD002800D02FE17D20020184
:104CD0000AA8002310F066FF0C980A990B9AA962A3
:104CE000EA62207431682846283010F07BFF0028E3
:104CF00000D01FE1A868EA68A98B00F077FC0020CB
:104D0000A0726072A8686862284624303446314632
:104D100003F02AFD002800D1DBE00722D6E08AB2AA
:104D20000AA80023FCF719FE0C980A990B9AA962AD
:104D3000EA6209990874344631682846283010F030
:104D400051FF002800D1C4E00F22BFE0A8688F4ABD
:104D5000344600268654EA68A868FFF71DFD012046
:104D600009998872099846722646A868686228469A
:104D700024303446314603F0F7FC002800D1A8E087
:104D80000322A3E0A868814A344600268654EA68D4
:104D9000A86800F02BFC099886720998467226468E
:104DA000A8686862284624303446314603F0DCFCAB
:104DB000002800D18DE0042288E0EC83012001402E
:104DC000099CA170A968714A8854A968A278704B9F
:104DD000CA54002A1FD0A07200206072A8686862BE
:104DE00028462430314603F0BFFC0028644A00D036
:104DF0009EE00AA8002310F0D5FE0C980A990B9AA1
:104E0000A962EA62207431682846283010F0EAFE70
:104E1000002800D088E0A868EA68E98B00F0C0FCB0
:104E20000120A07200206072A868686228462430C1
:104E3000314603F099FC00287ED10AA80023504A8D
:104E400010F0B0FE0C980A990B9AA962EA622074DD
:104E500031682846283010F0C5FE00286ED1A868B9
:104E6000EA68E98B01F0E6FF0020A0726072A86892
:104E7000686228462430314603F076FC00284FD182
:104E8000A078012824D1A8684149002343540AA8E6
:104E90003B4A10F087FE0C980A990B9AA962EA62C5
:104EA000207431682846283010F09CFE002839D143
:104EB0000020A0726072A8686862284624303446D8
:104EC000314603F051FC002803D00E2204984DE037
:104ED0003446AE696E61A8682A4940582D4904F0ED
:104EE0006FF90868401E0860089886423CD87D200B
:104EF000C2000AA8002310F055FE0C980A990B9ADC
:104F0000A962EA620999087426460C463168284667
:104F1000283010F067FE002800D1C9E4112221E0FA
:104F20000C221FE00D221DE009221BE0052219E0E2
:104F3000082217E0062215E00A2213E00B2211E0F6
:104F4000A8681249415C00290ED00021099CA17279
:104F50006172686228462430314603F005FC00285F
:104F600008D01022049802E000200122099C22703F
:104F70000FB0F0BDAA680549002050540122F6E7A1
:104F8000E02E00008C050000A0F7FFFFDC0500000C
:104F9000DD05000018E50110F0B503AFFFB0FFB06C
:104FA00095B0FFAA3C32199205463720C000281858
:104FB0001290284622301190287C40007844808846
:104FC000400087440500010304034100A5025E0080
:104FD0000F912E462D687468B460F560E8070AD01A
:104FE00010F0F4FB00900191012200232046294695
:104FF00000F0B2FBB4683546F4482058F44904F098
:10500000C0F803460C46F2681CA81946FFF7D0F911
:105010002068401C2060AD68FB48285C002824D034
:10502000304618300A901D981C99B161F061002239
:10503000129B1A76F4681C615D611A4618320D9253
:105040001394220A039237E00F91284618300A90F1
:105050001299084618300D90087E00281DD00328AC
:1050600000D1A6E1E94810F051F81D981C990022E2
:10507000119B9A75F268B16131461C3125C10F99B7
:1050800035462E461835284601F02CFDC4B2042CB6
:1050900000D048E20424052049E2487C0A46897C85
:1050A00009020818D17C090440180390A969E8692D
:1050B000137C13932E4655690E9631627062D14C63
:1050C0002859D34904F07CF81A91D24A83182E4605
:1050D0001D79E9B24D4210914D415B792B43341952
:1050E0000B94F324A40034190494A724E400169626
:1050F0003419059480580322D20185180E9C20345F
:105100001B9401210C91C44CDB07A84208D02D1937
:10511000854200D050E2002B0546F6D000201090CA
:105120001A990868401E08600B980068BB4904F093
:1051300028F809912721C900079142185721C90071
:105140000691405830210891484311461018189094
:1051500000251B9C139A1898814264D01A9103CCA5
:10516000F0ABD967199908600020083CD10756D0E8
:105170001A998B6A002B53D00E462C36B178002931
:105180004DD1317801291A99179305D17178109B67
:105190009942179B1A9943D1149615950D460835D7
:1051A000DC000026002C14D0A888E988090408181F
:1051B0001F9028886988090408181E901EA8FFA956
:1051C0003C3114F031FA00281AD1083C761C08351D
:1051D000E8E7149BD878410855220A40801A332109
:1051E000820808400A408018010940180F21014038
:1051F000179888421B9C139A159D0ED100200EE033
:10520000072006400120B040149AD1780143D170A4
:105210000C981B9C139A159D01E0002058801A9948
:105220003031054397E709990868401C0860D007AA
:105230002CD0E80716990E9D00D1B6E07720C0006B
:1052400019900E1810F0C2FA18901791226805995B
:105250000B68E24D0F2B1A9600D9E1E0646818251F
:105260005D4372517219039D2B0A937455742B0C74
:10527000D3745460189890601798D060012010750E
:10528000139810740868401C0860CFE00B98006801
:10529000D14903F076FF10910799441806994058B8
:1052A000089941436018159000201490CB4809904C
:1052B00016992346159883426DD018462E301890C3
:1052C000184630301790986AC50000241819083025
:1052D000A54208D01B991E4604F0BEFF3346083491
:1052E0000028F3D002E0179B1699E3E71A95189867
:1052F00004781B9903C9199A03C214981394204384
:105300001490002425461A98A04215D018198189B6
:10531000C289120451181F91018940890004401864
:105320001E901EA8FFA93C3114F07EF9002806D17A
:1053300008346D1C3346E6E71898407809E00720EA
:1053400005400120A840FF214140189A50780840AC
:10535000507000281699179CABD10020189A108025
:1053600013980028A5D0099881B20C9A100443180C
:10537000100C0B9A12041018984A914200D17068D0
:1053800000D133680993190C020489180C91000CA0
:105390000B9016998DE7109A1068401C10601498B5
:1053A000C0070E9D01D0099C20E00020129A1073C6
:1053B00011602C46283420460F9900F031F900285E
:1053C00008D003200D9908700424B1E08C0500007A
:1053D00088E50110204603F073FB119A108851886C
:1053E000090408180C9090880B902C8C01200D99C2
:1053F00008707A48401CA1B2814260D10424032085
:1054000096E0C0468C050000DE05000078E501103E
:1054100038E501108405000080FEFFFF48E501101B
:1054200090B2A84202D06E480FF018FF0B980068A7
:105430006C4903F0A6FE1B91079945180699405840
:10544000089C44436549002C29D0A86A00281ED036
:1054500029462E314A78530855261E40921B332385
:1054600096081A401E4092191309D2180F231340B0
:1054700098420CD10E781EA8294614F051F9002E3E
:1054800009D11E9B98B25549884205D08BE01EA8D1
:10549000294614F045F951493035303CD3E70B46E5
:1054A000059A1B9C2068401C2060189398B2884283
:1054B00016990E9D42D101200D990870474C0A980B
:1054C00003F0D8FAA0B24549884202D10024012055
:1054D0002EE00C9B19040818A968EA681B0C0B9CA9
:1054E0002404E318A861EB612A6269622846283027
:1054F000FFA93C312E463CC93CC0354600201199DD
:105500008875304639301EA9374A17F092FB0F993B
:105510002E461835284601F0E5FAC4B2042C02D113
:105520000420044603E0284603F00AFB0120354628
:1055300028742046FE1F053EB546F0BD13680025C1
:1055400015602E46049AB34206D0761C10781832A5
:105550000128F8D1012500E01E46182070434018AC
:10556000199944181A99B34214D0207D012801D109
:105570006D1C0CE01720C0436843201818222146F8
:105580001B951D4617F055FB2B461B9D1A99183489
:10559000761CE8E721931EA82AC01EA803F019FA7A
:1055A000189C0E9D22E71F98190C020489180C9173
:1055B0000A49000C0B9073E7281A114617F041F8BE
:1055C0000121044A0FF04AF801480FF09FFDFEDE6A
:1055D00098E5011020E2011058E501107308000061
:1055E0002A00000068E50110BF030000D0B502AF3B
:1055F000044609480840E02807D1084615F034FA67
:105600000649625C82436254D0BD88B2E82802D267
:10561000204601F00FFCD0BDF80F0000E1050000AE
:10562000FEB506AF01910546192000012C18207B1C
:10563000294642310091002804D0032849D02E4841
:105640000FF064FD002226686660A2602B483018C7
:1056500002907721C9007118A723DB00F3181820E6
:1056600050438019F326B60086191868824206D284
:10567000307801281FD0521CA2601836F5E7029836
:1056800000681F4903F07DFD5722D2008258002A8E
:105690000AD0B3235B00C0180378002B01D100238C
:1056A00003803030521EF7D10868401C086000208B
:1056B00001212173FEBD284605F050FA0020009913
:1056C000087003CD6268AB68083D2E4618360BC6DD
:1056D0006A622E4618363046019901F083FCC0B24A
:1056E000042805D0304603F03BFA6668A268ADE7AF
:1056F00001200321DDE7C046A8E501108C0500006C
:10570000B8E50110D0B502AFD30514D4130E940E32
:10571000022C14D8120CD4B2042C15D29A01891878
:1057200022018B5889184A688C68C96803604260F6
:105730008460C160D0BD002101604160D0BD0C21FA
:10574000044A18460EF08AFF0421024A20460EF051
:1057500085FFC046C8E50110F8B504AFCC0511D4EB
:105760000D0E8C0E022C0ED8090CCCB2042C0FD2CC
:10577000F968BE68AD014019240102510019436067
:105780008660C160F8BD0C21044A28460EF066FF11
:105790000421024A20460EF061FFC046D8E5011000
:1057A000F0B503AF87B00191039206927321C9004F
:1057B0000490441806A8401C059000261825029461
:1057C000002D0CD02078022805D0611C059804F02B
:1057D000EAFD002814D1241D2D1F761CF0E70B21B3
:1057E000C801049A1018C9430026002915D0421890
:1057F0009289002A02D0891C761CF6E7710006E027
:10580000062E0CD27000049908180B21C901019AC8
:105810004252B0000399029A115007B0F0BD062120
:10582000014A30460EF01AFF48E60110F0B503AF0A
:105830009FB00A9105461448281808905F20800000
:1058400028180990D5204000281806904720C0004D
:1058500028180C90572080002E18B07D2A469832C8
:10586000012107910D9640007844808840008744CC
:105870000D008F0097000E01AC01CE01BE02470261
:105880008D0137010903C0466A0200000292002020
:10589000039070753169F07D3075B26929656A656C
:1058A0000EA8FFF72FFF11980B90109E0E98C407BB
:1058B0000FF08CFF002C00D106462E600B9800D113
:1058C000084668607720C000296D0E18A720C00028
:1058D000085818214143731828465830019028462B
:1058E0005530049003990A46059303911E9118368A
:1058F0003446183C9C4230D0F01E0078311F0978A5
:10590000062901D0002919D10B920D9A127D002A87
:1059100005D000290B9A11D100280FD111E0F01FFA
:10592000049904F040FD059B00280B9A09D12088BA
:10593000C949401880B2C949884202D21836521C5F
:10594000D6E7501C0399102925D289000EAA0B9C7A
:1059500054501E99491C0246C7E70EA94422019CD7
:10596000204616F07FF90298006800280CD001202C
:105970000D9E70752146002434602846083044226C
:1059800016F028FEEC640CE0002001240D9E42E29B
:10599000B3480FF0BBFBB3481721B34A0FF034FBF9
:1059A000FEDE28460830A96C8C4200D33EE1A100FF
:1059B00040587060611CE9642C6DA721C9006158D2
:1059C000884200D3AEE1A949661818214143601806
:1059D0007721C900421810889F490818001D81B21C
:1059E000062900D3042080B2042830D0052858D1DD
:1059F000907805901046113029465531144604F030
:105A0000D2FC00287BD00B943068994903F0D8FB76
:105A10000D9EF061099A11608B22D2008358059C7B
:105A2000A34200D8EDE13022624380185B22D2000D
:105A300082180B98007D337D002B00D105E10823EF
:105A4000002800D119E1062800D116E167E11068AD
:105A50000D9E0490B06050680590F0600B92104667
:105A600011302946553104F09EFC317D002800D1CB
:105A7000A0E00029059B00D0049B0D9EF3610B98CC
:105A800000690021099A117653609060D460032464
:105A9000E00128180A9901F0D9FF002800D141E15E
:105AA000B8E13068734916460B9203F06AFB03466F
:105AB0000C4632690D9E30461C301946FEF778FCC4
:105AC0002068401C2060F069316A099A91600B9946
:105AD00009695060286D1061D16000200699087036
